:020000040800F2
:100000005007002089010008D31000082B100008B9
:10001000D11000088F020008E5120008000000005F
:10002000000000000000000000000000D7100008E1
:100030009102000800000000D5100008D910000847
:10004000A3010008A3010008A3010008A301000800
:10005000A3010008A3010008A3010008A3010008F0
:10006000A3010008A3010008A3010008A3010008E0
:10007000A3010008A3010008A3010008A3010008D0
:10008000A3010008A3010008A3010008A3010008C0
:10009000A3010008A3010008A3010008A3010008B0
:1000A000A3010008A3010008A3010008A3010008A0
:1000B000A3010008A30100083D110008A3010008E6
:1000C000A3010008A3010008A3010008A301000880
:1000D000A3010008A3010008A3010008A301000870
:1000E000A3010008A3010008A301000800F002F822
:1000F00000F03AF80AA090E8000C82448344AAF188
:100100000107DA4501D100F02FF8AFF2090EBAE885
:100110000F0013F0010F18BFFB1A43F0010318473B
:100120005013000070130000103A24BF78C878C143
:10013000FAD8520724BF30C830C144BF04680C60ED
:10014000704700000023002400250026103A28BF35
:1001500078C1FBD8520728BF30C148BF0B60704739
:100160001FB51FBD10B510BD00F058F81146FFF7C0
:10017000F7FF01F0C9F800F076F803B4FFF7F2FFDB
:1001800003BC00F07DF8000009488047094800479B
:10019000FEE7FEE7FEE7FEE7FEE7FEE7FEE7FEE737
:1001A000FEE7FEE704480549054A064B7047000094
:1001B00039110008ED000008500100205007002010
:1001C00050030020500300204FF0000200B51346FA
:1001D00094469646203922BFA0E80C50A0E80C5067
:1001E000B1F12001BFF4F7AF090728BFA0E80C5018
:1001F00048BF0CC05DF804EB890028BF40F8042B11
:1002000008BF704748BF20F8022B11F0804F18BF7D
:1002100000F8012B7047704770477047754600F033
:100220002BF8AE4605006946534620F00700854688
:1002300018B020B5FFF7B6FFBDE820404FF000062C
:100240004FF000074FF000084FF0000B21F00701BE
:10025000AC46ACE8C009ACE8C009ACE8C009ACE801
:10026000C0098D46704710B50446AFF300802046A4
:10027000BDE81040FFF781BF00487047F000002044
:1002800001491820ABBEFEE7260002007047FEE7DA
:1002900070470000064810B54FF0FF3101610022A1
:1002A0000261C160C26000F073F9002010BD00005F
:1002B000001002402DE9F84FDFF8B8910024A9F1B1
:1002C000040B23460F2709F1040AABF1040EC9E021
:1002D0000125A5402A40AA427DD1674ED1F804C02D
:1002E000ACEB0608B44532D014DCBCF1030F3AD0B5
:1002F00009DCBCF1000F2AD0BCF1010F1CD0BCF10D
:10030000020F31D11DE0BCF1110F17D0BCF1120F5B
:100310002AD119E0B8F5881F19D006DCB8F5803F5E
:1003200015D0B8F5801F1FD111E0B8F5001F0ED011
:10033000B8F5041F18D10AE0CB6815E0CB681B1D87
:1003400012E0CB6808330FE0CB680C330CE08B680D
:100350002BB1012B4FF0080303D0456104E00423C7
:1003600002E0056100E00023FF2A01D8064601E013
:1003700000F104064FEA840501D9A5F12005D6F85D
:10038000008007FA05FC28EA0C0803FA05F548EA9C
:100390000508C6F800804D68ED0062D5374DAE699E
:1003A00046F00106AE61AD6924F0030605F00105D3
:1003B0000095334D06EB050CDCF80850A607360F08
:1003C00007FA06F825EA0805DFF8B880404503D1AA
:1003D0004FF0000817E044E0DFF8AC80404502D160
:1003E0004FF001080FE0DFF8A480404502D14FF044
:1003F000020808E0DFF89880404502D14FF003087A
:1004000001E04FF0040808FA06F848EA0508CCF8BD
:1004100008804D68D9F80060ED024D4601D51643BD
:1004200000E096432E604D68DAF80060AD02554654
:1004300001D5164300E096432E604D68DBF800605E
:10044000AD035D4601D5164300E096432E604D682E
:10045000DEF80060ED03754601D5164300E09643D3
:100460002E60641C0D682A46E5407FF431AFBDE87C
:10047000F88F000008040140000011100010024035
:100480000000014000080140000C01400010014044
:10049000001401408068084000D001207047C26805
:1004A00021EA02030A4043EA0241016170470AB1AE
:1004B000016170470904FBE701488068704700004C
:1004C000080000200248816802781144816070476A
:1004D00008000020074810B5016841F010010160D4
:1004E000032000F0A3F80F2000F006F800F052F807
:1004F000002010BD0020024030B505461F4887B0DF
:10050000C16941F00401C161C06906A900F004009D
:10051000009001A800F0A0F90498B0B100F0BCF977
:1005200040001749174AB0FBF1F11748491E026015
:10053000416040F2E7320021C0E90321816081611E
:1005400000F082FB040003D015E000F0A5F9E8E715
:100550000D4800F0A7FB04000DD11E2000F038F874
:10056000102D07D2002229461E2000F03FF8074830
:10057000056000E0012407B0204630BD00100240B5
:1005800040420F0000080040A80000200C0000209E
:10059000704700000C4808B5816941F00101816194
:1005A000816901F001010091C16941F08051C1618F
:1005B000C06900F0805000900448416821F0E0617B
:1005C00041F00071416008BD001002400000014090
:1005D000002809DB00F01F02012191404009800042
:1005E00000F1E020C0F8001170470000F0B40E4B9D
:1005F0001B680C46C3F30223C3F10705042D00D981
:100600000425191D072901D2002300E0DB1E012665
:1006100006FA05F1491E214099409E40761E16407B
:100620003143F0BC00F05FBE0CED00E0064900F085
:10063000070208684FF6FF03184040EA0220034A09
:1006400010430860704700000CED00E00000FA0560
:100650002DE9F0470F46050061D0434E306800F0A9
:100660000700B84209D2306820F0070038433060F4
:10067000306800F00700B84251D128683B4C810730
:1006800012D5400703D5606840F4E06060602878C8
:10069000000703D5606840F4605060606068A96836
:1006A00020F0F000084360602878C00728D0686810
:1006B000012810D02168022810D0890700292EDADD
:1006C000616821F0030101436160FFF7F5FE804698
:1006D00041F288390DE021688903EFE78901EDE7F0
:1006E000FFF7EAFEA0EB0801494502D90320BDE867
:1006F000F0876068696800F00C00B0EB810FEFD103
:10070000306800F00700B8420BD9306820F00700CD
:1007100038433060306800F00700B84201D0012053
:10072000E5E72878400705D56068E96820F4E060CF
:10073000084360602878000706D56068296920F4BE
:10074000605040EAC100606000F0C6F86168084A85
:10075000C1F30311515CC8400649086006480068AF
:10076000FFF7CAFE0020C2E700200240001002404E
:1007700056140008140000200C0000202DE9F04160
:10078000FFF79AFE304C0546206840F001002060DB
:1007900005E000BFFFF790FE401B022843D8206809
:1007A0008007F7D5206820F0F80040F08000206036
:1007B000FFF782FE00250646656041F2883704E0B7
:1007C000FFF77AFE801BB8422DD8606810F00C0F3E
:1007D000F6D11F491D4808601E480068FFF78CFECF
:1007E00010B10120BDE8F081FFF766FE06462068E3
:1007F00020F08070206004E0FFF75EFE801B02287E
:1008000011D820688001F7D46560FFF755FE0646D1
:10081000206820F41020206007E000BFFFF74CFEA6
:10082000801B642801D90320DCE720688003F5D40D
:10083000206820F480202060606A40F08070606250
:10084000A5600020CEE700000010024000127A00F0
:10085000140000200C0000200F2202600C4A536894
:1008600003F003034360536803F0F00383605368AD
:1008700003F4E063C36052684FF4E06303EAD2021A
:1008800002610448006800F007000860704700003B
:1008900000100240002002400448054900684968F1
:1008A000044AC1F30221515CC84070471400002083
:1008B00000100240661400080448054900684968B1
:1008C000044AC1F3C221515CC840704714000020A3
:1008D00000100240661400080E4A51680E4801F0EC
:1008E0000C03042B11D0082B0FD10C48C1F3834308
:1008F000C903C05C0AD55168084AC1F34041921E41
:10090000515C054A5043B0FBF1F07047044948433D
:10091000704700000010024000127A0046140008E0
:1009200000093D002DE9F84F040070D02078C04D3B
:10093000C00749D06868C0F38100012807D0686803
:10094000C0F38100022809D16868C00306D5286871
:10095000800339D560680028E7D035E06068B0F5DD
:10096000803F0BD010B1B0F5A02F11D0286820F433
:1009700080302860286820F4802002E0286840F455
:1009800080302860606890B1FFF796FD06460AE067
:10099000286840F480202860F0E700BFFFF78CFD56
:1009A000801B642873D828688003F7D50CE0FFF714
:1009B00083FD064605E000BFFFF77EFD801B64282F
:1009C000F0D828688003F7D420789A4E80074FF03B
:1009D00001094FF0000839D5686810F00C0F07D0F6
:1009E0006868C0F38100022809D16868C00306D492
:1009F0002868800714D52069012808D110E02069F3
:100A0000B0B1C6F80090FFF757FD074605E00AE1D0
:100A1000FFF752FDC01B0228C4D828688007F7D50D
:100A20002868616920F0F80040EAC10028600DE004
:100A3000C6F80080FFF740FD074604E0FFF73CFDE5
:100A4000C01B022823D828688007F7D42078000725
:100A50002CD57948A169D9B1C0F80090FFF72CFDD9
:100A6000074604E0FFF728FDC01B02280FD8686A7C
:100A70008007F7D571484FF4FA510068B0FBF1F0E8
:100A8000009000BF0098411E0091FAD20EE080E075
:100A9000C0F80080FFF710FD074604E0FFF70CFDEB
:100AA000C01B022875D8686A8007F7D420784007F1
:100AB00060D5E8690027C00008D4E86940F080509C
:100AC000E861E869012700F0805000905C48016807
:100AD000C90513D40168834641F480710160FFF7B2
:100AE000EBFC824606E000BFFFF7E6FCA0EB0A0045
:100AF00064284ED8DBF80000C005F5D5E068012871
:100B00000AD008B1052813D0286A20F00100286215
:100B1000286A20F0040002E0286A40F00100286200
:100B2000E06841F2883B98B1FFF7C6FC82460BE0D3
:100B3000286A40F004002862EEE700BFFFF7BCFC23
:100B4000A0EB0A0159455AD8286A8007F6D50CE06F
:100B5000FFF7B2FC824605E0FFF7AEFCA0EB0A010E
:100B600059454CD8286A8007F6D41FB1E86920F0AF
:100B70008050E861E06988B36968C1F381010229A6
:100B800044D00228C6F8608004D0FFF795FC0446E4
:100B900038E034E0FFF790FC074604E0FFF78CFCF8
:100BA000C01B02282BD828688001F7D4206AB0F532
:100BB000803F05D16868A16820F400300843686070
:100BC000D4E908010843696821F474110843686096
:100BD000C6F86090FFF770FC044606E025E000BF11
:100BE000FFF76AFC001B022809D828688001F7D5A6
:100BF0001BE000BFFFF760FC001B022802D90320A6
:100C0000BDE8F88F28688001F4D40EE00128F7D001
:100C10006868226A00F48031914204D1616A00F46C
:100C20007010884201D00120EAE70020E8E70000C8
:100C300000100240000042428004424214000020A2
:100C4000007000407047704710B5040003D094F85E
:100C50003D0010B107E0012010BD002084F83C00E9
:100C6000204600F01EF8022084F83D00211D206877
:100C700000F06AFA012084F8460084F83E0084F807
:100C80003F0084F8400084F8410084F8420084F872
:100C9000430084F8440084F8450084F83D000020B7
:100CA00010BD704790F83D10012901D00120704718
:100CB000022180F83D100168CA6842F00102CA6052
:100CC00000680B49884208D0B0F1804F05D009492F
:100CD000884202D00849884204D1816801F00701A6
:100CE000062903D0016841F001010160002070472E
:100CF000002C01400004004000080040704770B51F
:100D00000446006801694FF00005C943890715D4FE
:100D1000C168C943890711D4E91E01610120207708
:100D2000206880698007204602D0FFF7E7FF04E0D3
:100D300000F098F8204600F096F8257720680169C1
:100D4000C943490717D4C168C943490713D46FF091
:100D500004010161022020772068806910F4407F3F
:100D6000204602D0FFF7CAFF04E000F07BF82046DF
:100D700000F079F8257720680169C943090716D47E
:100D8000C168C943090712D46FF00801016104204A
:100D900020772068C0698007204602D0FFF7AEFFA9
:100DA00004E000F05FF8204600F05DF82577206849
:100DB0000169C943C90617D4C168C943C90613D418
:100DC0006FF010010161082020772068C06910F4DD
:100DD000407F204602D0FFF791FF04E000F042F888
:100DE000204600F040F8257720680169C943C9070B
:100DF00008D1C168C943C90704D1891E01612046D1
:100E000000F032F820680169C943090609D4C168B5
:100E1000C943090605D46FF0800101612046FFF740
:100E200011FF20680169C943490609D4C168C94353
:100E3000490605D46FF040010161204600F01EF81C
:100E400020680169C94389060BD4C168C943890672
:100E500007D46FF0200101612046BDE87040FFF724
:100E6000F2BE70BD7047704700680349884201D1E7
:100E7000FFF728BB7047000000080040704770B5BE
:100E8000040004D094F84100002510B106E00120D0
:100E900070BD84F84050204600F024F8242084F8E7
:100EA00041002068C16821F40051C160204600F073
:100EB00081F92068016921F490410161206841694C
:100EC00021F02A0141612068C16841F40051C160EC
:100ED0006564202084F8410084F8420065630020A6
:100EE00070BD000070B586B0002400940194029497
:100EF0000394234E0368234902200322224DB34268
:100F000019D18B6943F480438B618B6903F480436F
:100F100004938B6943F004038B618969039201F0A8
:100F2000040104910102CDE9001069462846FFF74B
:100F3000C1F928151BE0154EB3421FD1CB6943F40C
:100F40000033CB61CB6903F4003304938B6943F026
:100F500004038B618969039201F004010491042167
:100F6000CDE9001069462846FFF7A4F90820CDE92D
:100F70000004694628460294FFF79CF906B070BD4C
:100F800000380140001002400008014000440040C9
:100F90002DE9F843044690F841001F4616460D46D9
:100FA000202802D00220BDE8F8837DB176B1002070
:100FB0006064212084F84100FFF77EFAA684804611
:100FC000E684A068B0F5805F02D003E00120EAE784
:100FD000206910B12E4600250EE000260CE080218D
:100FE000204600F043F9A0B9AEB116F8010B216814
:100FF0004860E08C401EE084E08C43464FF00002E5
:1010000000970028EBD14FF04001204600F02EF968
:1010100030B10320C7E735F8020BC0F30800E6E75C
:10102000202084F841000020BDE7FEE770B586B0BF
:10103000002423480094019402940394816941F0B0
:1010400010018161816901F010010491816941F011
:1010500020018161816901F020010491816941F0E1
:1010600004018161816901F004010491816941F009
:10107000080181618069134E00F008004FF40055AB
:101080000490002229463046FFF711FA0220CDE9EC
:10109000024000950125694601953046FFF70AF99F
:1010A000CDE90054694608480295FFF703F9E803C3
:1010B0008DE8310069460548FFF7FCF806B070BDC1
:1010C000001002400010014000080140000C0140E7
:1010D000FEE7FEE770477047704730B58FB02821B4
:1010E0006846FFF771F814210AA8FFF76DF801218F
:1010F0000804CDE900100024029402250491CDE9F2
:1011000007504FF4E01009906846FFF70BFC08B158
:1011100072B6FEE70F20CDE90A054FF48060CDE9F5
:101120000C4002210AA80E94FFF792FA002801D081
:1011300072B6FEE70FB030BD704700000148FFF700
:10114000DEBD0000A8000020F0B50268164B174C69
:10115000174D4FF08047984205D0B84203D0A042C7
:1011600001D0A84203D122F070064A683243984267
:1011700005D0B84203D0A04201D0A84203D122F446
:101180004074CA6822434C6922F080022243026004
:101190008A68C2620A688262984201D10969016361
:1011A00001214161F0BD0000002C0140000400401D
:1011B0000008004070B5044600680169E26821F447
:1011C0004051114301612169A068084361690843E6
:1011D0002168CA6841F20C639A430243CA602068DE
:1011E0004169A26921F44071114341611E4920689F
:1011F000884202D1FFF760FB01E0FFF74DFB00EBF7
:10120000C00101EB0012606864218000B2FBF0F3C2
:10121000B3FBF1F36FF018067343B2FBF0F5B2FBCA
:10122000F0F605EB8305322303EB0515B5FBF1F56D
:10123000B6FBF1F605F0F00505EB0615B2FBF0F68E
:10124000B2FBF0F0B0FBF1F06FF01802504306EB88
:10125000800003EB0010B0FBF1F0216800F00F00FC
:101260002844886070BD0000003801402DE9F0413D
:10127000984617460E460446069D27E0681C25D072
:101280002DB1FFF719F9A0EB0800A8421ED920687C
:101290000C3050E8001F21F4D07140E80012002A01
:1012A000F5D12068143050E8001F21F0010140E81A
:1012B0000012002AF5D1202084F8410084F8420071
:1012C000002084F840000320BDE8F0812068006819
:1012D00036EA000004D00020B842CFD00020F3E767
:1012E0000120F9E7FEE70907090E002804DB00F1F9
:1012F000E02080F80014704700F00F0000F1E020BB
:1013000080F8141D70470000FFF7E4F8FFF7E5FED2
:10131000FFF78CFE284827494FF4E135002401608F
:10132000C0E901540C26C460C0E904468461C4616C
:10133000FFF7A5FD08B172B6FEE71F481F49483008
:101340000160C0E90154C460C0E904468461C4611D
:10135000FFF795FD08B172B6FEE7174864231F2218
:1013600017A14830FFF714FE1D4C4FF400551D4ED9
:10137000DFF87480AF0000BFFFF79EF82168401AC5
:10138000C82806D329463046FFF789F8FFF794F8B6
:10139000206039464046FFF77DF80028ECD106482A
:1013A00064231F2211A14830FFF7F2FD00F030F84E
:1013B000E2E700000038014018000020004400402F
:1013C0002D2D2D2D2D2D2D2D2D2D426F6F746C6FEC
:1013D000616465722D2D2D2D2D2D2D2D2D2D0A00A5
:1013E0000000002000100140000C01402D2D2D2D8B
:1013F0002D2D2D2D2D2D4170706C69636174696FD9
:101400006E2D2D2D2D2D2D2D2D2D2D0A00000000A2
:1014100010B5FFF7B3F9FEF73DFF0748016821F467
:10142000E02101600548016881F3088840680449AB
:101430004860BDE81040004724ED00E0004000088F
:1014400000000020010202030405060708090A0B38
:101450000C0D0E0F10100000000000000000010233
:10146000030406070809000000000102030400004D
:101470009014000800000020180000002801000857
:10148000A8140008180000203807000044010008D4
:10149000000000000000000001000000100000003B
:0814A000000000000024F4002C
:04000005080000ED02
:00000001FF
