:020000040800F2
:1040000090180020CD420008678E0008C97E000885
:10401000658E0008DB5E0008619600080000000065
:104020000000000000000000000000003542000811
:10403000095F00080000000079420008959200081E
:10404000E7420008E7420008E7420008E7420008AC
:10405000E7420008E7420008E7420008E74200089C
:10406000E7420008E7420008E7420008E74200088C
:10407000E7420008E7420008E7420008E74200087C
:10408000E7420008E7420008E7420008E74200086C
:10409000E7420008E7420008E7420008E74200085C
:1040A000E7420008E7420008E7420008E74200084C
:1040B000E7420008E742000849930008CD7E000867
:1040C000E7420008E7420008E7420008E74200082C
:1040D000E74200084996000855960008E7420008A4
:1040E000E7420008E7420008E742000800F002F853
:1040F00000F090F80AA090E8000C82448344AAF1F2
:104100000107DA4501D100F085F8AFF2090EBAE8EF
:104110000F0013F0010F18BFFB1A43F001031847FB
:10412000EC7100000C720000103A24BF78C878C10E
:10413000FAD8520724BF30C830C144BF04680C60AD
:10414000704700000023002400250026103A28BFF5
:1041500078C1FBD8520728BF30C148BF0B607047F9
:104160006E2900F08A83702900F0CD84662906F05C
:10417000FF86652906F0FC86672906F0F986612925
:1041800006F0F88603681B0A28BF41F08001692900
:1041900000F0E480642900F0E180752900F0DE8001
:1041A0006F2900F05A84782900F09984E92900F0F9
:1041B000F583E42900F0F283F52900F0EF83EF297D
:1041C00000F05784F82900F098840368DB0928BFC1
:1041D00041F08001632901F0E380732901F0E88058
:1041E000E32901F0F380F32901F0F8800020704703
:1041F0001FB501F0A9F904000020002106F048FBDA
:10420000401C60600020002106F058FBE0601FBDEC
:1042100010B510BD01F073F91146FFF7E9FF05F085
:10422000DDFA01F055FA03B4FFF7F2FF03BC01F029
:1042300059FA0000224B19680868B0E8F00F80F3C3
:104240000988BFF36F8F4FF0000080F311884EF0A4
:104250000D0E70470000000006480068006880F3FB
:10426000088862B661B6BFF34F8FBFF36F8F00DF70
:1042700000BF00BF08ED00E0EFF30980BFF36F8FD0
:104280000F4B1A6820E9F00F106008B54FF050008E
:1042900080F31188BFF34F8FBFF36F8F06F058F98B
:1042A0004FF0000080F31188BDE8084019680868E5
:1042B000B0E8F00F80F30988BFF36F8F704700BF3D
:1042C0003C000020EFF3058070470000094880475C
:1042D00009480047FEE7FEE7FEE7FEE7FEE7FEE7E8
:1042E000FEE7FEE7FEE7FEE704480549054A064B00
:1042F0007047000047930008ED400008901200202E
:104300009018002090140020901400201CB50C463A
:10431000064B7B4469460090204600F0C8FA0446EC
:104320000020694600F0D6FA20461CBDBF050000FB
:104330000FB41CB5084B06AA7B446946009005984B
:1043400000F0B5FA04460020694600F0C3FA2046A2
:104350001CBC5DF814FB0000990500002DE9F0413C
:104360000646002410687529314616A510D000F0C5
:10437000F0F9002802DA404213A507E031688A0705
:1043800001D512A502E0490704D511A5012401E0D9
:1043900000F0E8F900210A2206F1240709E0B0FB49
:1043A000F2FCB0FBF2F302FB1C00303078541846EC
:1043B000491C0028F3D123462A463046BDE8F04187
:1043C00000F002BA000000002D0000002B000000E9
:1043D000200000002DE9F05F894604464FF0000AF6
:1043E000DFF874B1FB44C0F820A02046E16888479C
:1043F000002874D0252806D0D4E901219047206AEE
:10440000401C2062F1E700265F462046E1688847AD
:104410002028054607DB312D05D2781910F8200C2D
:1044200008B10643F1E7B00701D526F00406C4F849
:104430001CA00027C4F818A02A2D09D0284605F092
:1044400034F938B304EB8708303DC8F8185019E048
:1044500059F8041B204604EB87029161E168884704
:10446000012F054618D1E069002820DA26F0200641
:104470001DE0D8F8180000EB800005EB4000303854
:10448000C8F818002046E1688847054605F00DF990
:104490000028EED1012F0AD02E2D08D12046E16848
:1044A00088477F1C0546022F46F02006C4DBA06922
:1044B000002803DA404246F00106A061F00701D06F
:1044C00026F010066C2D0BD0682D09D04C2D39D05C
:1044D0006A2D35D0742D35D07A2D33D016E038E0E2
:1044E000E1682F4620468847B842054609D16C2F1F
:1044F00026D04FF48060E168064320468847054691
:1045000004E06C2F1AD04FF4807006430DB3A5F170
:104510004100192802D8203546F400664A4629464B
:10452000204626604E46FFF71BFE80B101280BD0C7
:10453000F61D26F0070000F1080956E74020E4E7E1
:104540008020D8E70020D6E706F104094DE7284689
:1045500052E7206ABDE8F09F206D000070B5064666
:1045600000F0CCF80468054630460A22002100F02D
:10457000D5FA2C6070BD0000014A00F007BB0000B6
:104580001001002010B5431C02E010F8011B71B1AE
:104590008107FAD14FF0013202C88C1A8C4314EA19
:1045A000C211F9D0C01A0A0603D0C01E10BDC01A2D
:1045B00010BD0A0401D0801E10BD0902FCD0401EAF
:1045C00010BD10B5203AC0F00B80B1E81850203A69
:1045D000A0E81850B1E81850A0E81850BFF4F5AFA3
:1045E0005FEA027C24BFB1E81850A0E8185044BF2D
:1045F00018C918C0BDE810405FEA827C24BF51F89A
:10460000043B40F8043B08BF7047D20728BF31F88D
:10461000023B48BF11F8012B28BF20F8023B48BFDE
:1046200000F8012B70474FF0000200B51346944686
:104630009646203922BFA0E80C50A0E80C50B1F1FA
:104640002001BFF4F7AF090728BFA0E80C5048BF0E
:104650000CC05DF804EB890028BF40F8042B08BFAC
:10466000704748BF20F8022B11F0804F18BF00F8A8
:10467000012B70474FF0013C50F8042B51F8043BDC
:104680009A4221D1A2EB0C03934313EACC1317D126
:1046900050F8042B51F8043B9A4215D1A2EB0C03BD
:1046A000934313EACC130BD150F8042B51F8043B7D
:1046B0009A4209D1A2EB0C03934313EACC13DBD04B
:1046C0004FF00000704700BFD01A01BAB1FA81F173
:1046D00001F0180122FA01F0CB40C1F12001DBB258
:1046E000C0B2C01A2CFA01F3D11A914311EAC311D6
:1046F000E6D1704770477047704700000048704728
:104700002C12002070B5044685690068C10601D5E9
:10471000302600E02026C00707D070BDD4E9012173
:1047200030469047206A401C20626D1EF6D570BD51
:1047300070B5044685690078C00707D170BDD4E91B
:10474000012120209047206A401C20626D1EF6D572
:1047500070BD09684A0501D540B27047C905FCD54E
:1047600000B2704709684A0501D5C0B27047C90553
:10477000FCD580B2704770B50C460546012A05D0BD
:104780002878800600D5EA69002302E0012305E0CD
:104790005B1C934202D2E05C0028F9D1A869E618BC
:1047A000C01AA861286A184428622846FFF7AAFFA1
:1047B00004E0D5E9012114F8010B9047B442F8D385
:1047C0002846FFF7B5FF70BD2DE9F0470D46994625
:1047D0009246044600F124080168880604D5E06981
:1047E00021F01001216000E00120A84201DD471BFB
:1047F00000E00027A1697A1902EB0900081AA061FC
:104800002078C00602D42046FFF77CFF002608E08F
:10481000D4E901211AF806009047206A401C761C52
:1048200020624E45F4DB2078C0060AD52046FFF70B
:1048300069FF06E0D4E9012130209047206A401C3E
:104840002062381EA7F10107F4DC07E0D4E901215A
:1048500018F805009047206A401C2062281EA5F128
:104860000105F3DC2046FFF763FF2078000602D540
:104870000220BDE8F0870120FBE711680268006AAA
:10488000530501D508700AE0D30501D5088006E07C
:10489000130603D5C217C1E9000200E00860012039
:1048A0007047000001694A1C02610878704700B532
:1048B0008FB0CDE901310021059105497944CDE959
:1048C000031011466846FFF785FD0FB000BD0000DC
:1048D000E5FFFFFF0A6802F8010B0A60704700005D
:1048E0002DE9FF5F15468A460446DFF8AC80F844A0
:1048F0000027D8E900103E46CDE9001010E03AF854
:1049000016106A4602A800F0BCFD411C07D02178B1
:10491000890603D5E269391891420DD80744761CFF
:104920002078800602D5E069B84205DDAE42E6DBBC
:104930003AF816000028E2D1A069C01BA061204609
:10494000FFF7E0FED8E90010CDE90010002017E0E5
:104950003AF818106A4602A800F093FDB0F1FF3F44
:1049600081460BD000250DF1080B05E0D4E90121AB
:104970001BF8050090476D1C4D45F7D308F1010069
:10498000B0428046E4DB206A384420622046FFF7CC
:10499000CFFEBDE8FF9F00002A6800002DE9F0412E
:1049A0008046D21D22F007020025D2E90002F52937
:1049B00015A614D0011E72F1000106DA0023D0EB17
:1049C000030063EB020211A608E0D8F800108B0781
:1049D00001D50FA602E0490701D50EA60125114613
:1049E000002408F1240704E000F0FEF830323A55C4
:1049F000641C50EA0102F7D12B463246214640465C
:104A0000BDE8F041FFF7E0BE000000002D0000000F
:104A10002B0000002000000030B4002100F124042D
:104A200008E002F00705D208303542EA4372DB089D
:104A30006554491C52EA0305F3D10468002310A20F
:104A4000250707D5A40600D421B1C46901230DA20E
:104A5000641EC46130BCFFF7B7BE10B504462146E2
:104A60001068FFF77FFE02462046BDE81040002395
:104A7000D2E7D21D22F00701D1E90023CCE70000E4
:104A80000000000030000000F0B40D460188090568
:104A900002D5214C7C4402E01F4C7C440E340021A2
:104AA00000F1240608E002F00F071209E75D42EA70
:104AB00003721B097754491C52EA0307F3D10278A9
:104AC0000023120704D5702D06D009B1022311343A
:104AD0002246F0BCFFF778BE01231034F8E770B52A
:104AE00004460D4621461068FFF73CFE0246294663
:104AF0002046BDE870400023C6E7D21D22F0070320
:104B0000D3E90023C0E70368126843F02003036081
:104B10000823C3610023B7E78C6600002DE9F04746
:104B200091460F4680460446002614F8015B2DB1DD
:104B300000F052F80068405DC007F6D12B2D02D07E
:104B40002D2D18D0641E4A463946204600F04AFCF6
:104B500027B13968A14201D1C7F800804FF00204A3
:104B600071050BD54042002803DDFFF7C7FD046047
:104B7000A007BDE8F08746F48066E4E70028F8DA8D
:104B8000FFF7BCFD04606FF00040F2E72DE9F04153
:104B900015460E46040002D12C6804B90BA4204629
:104BA00000F09FFC0444207870B127463146384617
:104BB00000F087FC0444207810B1002004F8010BB9
:104BC00038462C60BDE8F0810027F9E700000000BE
:104BD000004870472C12002010B500F0B5FC001DF5
:104BE00010BD00BFAD5C000030B5B0F10A024FEA65
:104BF000900E71F100034EEA817EB0EB0E0061EB86
:104C000091014FEA101E4EEA017E10EB0E0041EBBF
:104C100011114FEA102E4EEA016E10EB0E0041EB1F
:104C200011214FEA104E4EEA014E10EB0E0041EBFF
:104C30001141401841F100014FEAD00040EA4170B3
:104C40004FEAD10110EB80054FEA810444EA9074E9
:104C500044EB01046D1944EB0404521BA3414FF0D3
:104C6000000348BF0A3200D530BD401C41F10001AD
:104C700030BD70472DE9FF4F0C461E464FF0FF3701
:104C80008BB0D2E90001DDF860800A908A46C1F35A
:104C90000A5505B93D46002108464FF00000BAF11B
:104CA000000F00F4400005DA00EB80004FF44001F3
:104CB00001EA50004FEA9059B9F1010F00DDB94601
:104CC0000A9850EA4A000ED044F61050A5F2FF357B
:104CD00045432F14B8F1000F1ED07542291E1EDD6A
:104CE000C9F100021CE0B8F1010F4FF0000001D043
:104CF000302103E0F24305E02154401CB042FBDBCD
:104D000030460022002121540B99C1F80880C1E9E6
:104D100000200FB0BDE8F08FBD1B6D1CDEE74A46DA
:104D200000DA694206A800F061FC06AB93E80700D0
:104D300003AB83E8070050460A9900F0DAFC8DE8DF
:104D40000700A0F500501F3800900398002D0ADDE1
:104D500042F21F014A460844002303A90390684613
:104D600000F043FF09E0A0F500504A461F38002339
:104D700003A90390684600F04DFF8DE8070000048A
:104D8000000C03D04FF0FF30410800E01046B8F1AE
:104D9000000F03D00022009215461EE0751E05D4B8
:104DA000FFF722FF303262556D1EF9D5B34601225E
:104DB000084302D000227F1C04E02078302801D173
:104DC00000227F1E002A099784D01DE0112D07DAEA
:104DD000FFF70AFF303262556D1C50EA0102F5D12F
:104DE000084302D00098C8B10EE00021681E05E01B
:104DF000235C625C63542254401E491C8142F7DBF1
:104E0000AB46A81B401E0990002004F80B000B982D
:104E1000099AC0F80880C0E9002B7AE711264FF004
:104E2000000857E72DE9F04F88460446D21D22F0CE
:104E3000070191B0D1E90001CDE90A0104F011FCAC
:104E400002460B98C00F01D02D2007E02068810793
:104E500001D52B2002E0202101EAC000032A09909D
:104E600001D0072A05DB03464146204600F070FBCF
:104E70000BE12078800601D5E06900E00620B8F15A
:104E8000650F814606D0B8F1660F18D0B8F1670FEC
:104E900070D131E00020B9F1110F009001DB112336
:104EA00001E009F101030AAA01A90CA8FFF7E2FE3B
:104EB000DDE90C70002609F10105834647E0012079
:104EC0004B4600904FF000470AAA01A90CA8FFF733
:104ED000D1FEDDE90DB00C995D46002610B909F14F
:104EE00001000D18B9EB050003D4C0F1FF3609F13C
:104EF0000105A5EB09002BE0B9F1010F01DA4FF034
:104F000001090020B9F1110F0090484601DD11237D
:104F100000E003460AAA01A90CA8FFF7ABFEDDE9F1
:104F20000C704D4600268346207800070AD4AB4516
:104F300000DA5D4601A8012D04DD411911F8011CBC
:104F4000302907D04F4502DA17F1040F04DA0120A7
:104F500082460FE06D1EEEE7002F02DCED1B3E44A3
:104F600003E0781CA84200DD7D1CB81B00F1010A9B
:104F70004FF000472078000703D4AA4501DB4FF02B
:104F8000FF3A0021B7F1004F0DF143088DF84310AF
:104F900024D002202B23002F01DA7F422D230A2167
:104FA000021EA0F1010000DC5FB197FBF1FC97FB52
:104FB000F1F201FB1C7C17460CF1300C08F801CD16
:104FC000EEE7A8F1010003702188090501D545210C
:104FD00000E06521A0F1010800F8011C09980FA963
:104FE000A1EB0807FF1D00B10120411901EBEA7098
:104FF000A1693844081A401EA0612078C00602D476
:105000002046FFF77FFB099828B1D4E9012190479A
:10501000206A401C20622078C00622D52046FFF777
:1050200071FB1EE0002E04DBB34502DD01A8805DAC
:1050300000E03020D4E901219047206A401C206222
:10504000761CAAF101005FEA000A0AD100F07CFA9E
:10505000C0680168405CD4E901219047206A401C87
:105060002062281EA5F10105DCDC07E0D4E901215E
:1050700018F8010B9047206A401C2062381EA7F1E7
:105080000107F3DC2046FFF753FB032011B041E694
:105090002DE9F04F04460D46D21D22F0070089B0DD
:1050A000D0E900974846394604F0DBFA0246F80F8B
:1050B00001D02D2307E02068810701D52B2302E0D2
:1050C000202101EAC0038DF820300BB1012000E05F
:1050D0000020032A824601D0072A04DB2946204605
:1050E00000F036FA3FE12078800601D40D2500E07B
:1050F000E569C7F30A560D2D49DA00214FEA175B1F
:1051000008464FF00000002F00F4400007DA00EBE3
:1051100080004FF4400100EBD07001EA600081157F
:10512000012901DD4FF0FF3100224FEA850CBCF16F
:10513000180F06D31346ACF118004FF08052C2404E
:1051400003E04FF4801323FA0CF30CF10C0CBCF1C8
:10515000200F04D3ACF1200C09FA0CF001E007FA9F
:105160000CF000294FF0004801DD18B90FE00ED116
:1051700040450CD319EB02095F4121B9404502D1EA
:105180009F4329EA0209BBEB175F00D0761C2088F9
:10519000000502D57B48784402E07A487844193803
:1051A00008AA302302F80A30037C0AF10101002E1C
:1051B0000AF1020A53546A4602DC4FF0300101E062
:1051C0004FF031014FF001088DF8001002D0A6F227
:1051D000FF3603E059EA470100D06B4E002D02DC98
:1051E0002178090704D54FF002082E218DF801100F
:1051F000C44600210BE0C7F303433F01C35C491CD5
:105200006D1E02F80830052908F1010801DA002DA9
:10521000F1DC00210CE000EB1973491C1B786D1EBA
:10522000082902F808304FEA091908F1010801DAE3
:10523000002DF0DC21688B0602D516E0A8F10108EC
:10524000E04505DD02EB080313F8013C302BF5D0F7
:10525000B8F1000F09DD02EB080313F8013C2E2B17
:1052600003D1090701D4A8F10108002D05DD3E2175
:1052700002F808106D1E08F10108407C002E02F8AB
:10528000080008F1010804DA2D20764202F808002F
:1052900002E02B2002F808000A214FF47A708642BF
:1052A00008F101080BDB96FBF0F3303302F808300D
:1052B00096FBF0F308F1010800FB136601E0642E91
:1052C0000CDB642096FBF0F3303302F8083096FBD9
:1052D000F0F308F1010800FB136601E00A2E06DB7B
:1052E00096FBF1F0303002F8080008F1010896FB57
:1052F000F1F001FB1060303002F80800A16908F1FC
:10530000010808EB050202EB0A00081AA0612078E8
:10531000C00602D42046FFF7F5F9216A08AE01EB7A
:105320000A00206204E0D4E9012116F8010B90473D
:10533000BAF1010AF7D22078C00602D52046FFF75D
:10534000E1F96E4609E016F8010B3E280FD0D4E9CA
:1053500001219047206A401C2062B8F10108F2D276
:105360002046FFF7E5F909B00320BDE8F08F206A79
:105370002844206203E0D4E90121302090476D1ECB
:10538000EBD3F8E7C55F000002FCFFFF10B54369EF
:1053900013B1AFF3008001E0FFF7EDF9012010BD7C
:1053A000127800F124010A7000224A700122EDE710
:1053B00011684FF0FF32E9E710B5436913B1AFF35D
:1053C000008001E0FFF78CFA012010BD128800F187
:1053D000240182840022C2840122EDE711684FF08B
:1053E000FF32E9E72DE9F05F824615468B4600273C
:1053F0000AF10104B9460078302801D09DB113E0CC
:1054000014F8010B0127782803D0582801D045B1A2
:105410000AE00DB1102D07D1002714F8010B10255B
:1054200002E0082500E00A250026B0460EE005FB54
:10543000080005FB06F101271FFA80F801EB104672
:10544000B6F5803F00D3B94614F8010B294600F0A9
:10545000BFF80028EBDABBF1000F05D00FB1641ED6
:1054600000E05446CBF80040B9F1000F06D0FFF73A
:1054700045F902210160C81EBDE8F09F48EA0640D8
:10548000FAE770B516460C460546FFF7A5FB03681C
:1054900093F80101012806D0FF2C0FD8185D68B1E0
:1054A00001202C7070BDD3F807013246214603F26B
:1054B000071303442846BDE8704018474FF0FF30FB
:1054C00070BD30B503461D781DB10A4603E0AC42FD
:1054D00001D1181A30BD12F8014B002CF7D15B1C1A
:1054E000F1E730B503461D783DB10A4612F8014B8D
:1054F0001CB1AC42FAD15B1CF5E7181A30BD7546F9
:10550000FFF766FBAE4605006946534620F00700EC
:10551000854618B020B5FEF7E7FEBDE820404FF005
:1055200000064FF000074FF000084FF0000B21F08D
:105530000701AC46ACE8C009ACE8C009ACE8C0095A
:10554000ACE8C0098D467047004870474C120020F7
:105550002DE9F0411F46044603260168072A01F49D
:10556000006004DB08B116A505E016A503E008B14C
:1055700015A500E015A521F010002060A069C01E4F
:10558000A0610FB1401EA0612046FFF7BBF84FB1EC
:10559000D4E9012138469047206A401C2062C01C93
:1055A000206206E0206AFAE7D4E9012115F8010B30
:1055B0009047761EF8D22046FFF7BAF8BDE8F08192
:1055C0004E414E006E616E00494E4600696E6600A7
:1055D0003A2800D2303820F02002412A01D3A2F12B
:1055E0003700884201D34FF0FF3070472DE9F04774
:1055F000814616468AB0354878440DC88DE80D00BE
:1056000032487844801C03AC0DC884E80D0041F694
:105610009B300844372190FBF1F290FBF1F5A5F1A6
:10562000800501FB12041B3C02D56442012000E00E
:105630000020DFF898A080460027FA44AAF1BE0AAD
:105640000EE0E0070AD03246684607EB4701012327
:105650000AEB810100F0DEFA8DE8070064107F1C80
:10566000002CEED1194F7F44AE3F19E0E80715D06A
:1056700007EB04100DF1180A90E80E008AE80E00FE
:10568000C068F04201D1981908903246012306A95A
:1056900003A800F0BFFA03AB83E807006D10641C99
:1056A000002DE3D14FF0010332466946B8F1000FF7
:1056B00003A802D000F099FA01E000F0ABFAC9E9C2
:1056C0000001C9F808200AB0BDE8F087F45B0000CB
:1056D00010B50446AFF300802046BDE81040FEF749
:1056E000A2BD000001491820ABBEFEE72600020063
:1056F00070475FEA400C08BF91F0000F4FEA8C231F
:105700004FEAC12243EA51514FEA1C5018BF00F53D
:10571000F0404FEA300018BF41F000415FEA6C5C96
:1057200000F02980BCF1FF3F08BF40F08040704787
:10573000130C06BF12044FF0100C4FF0000C130EA8
:1057400004BF12020CF1080C130F04BF12010CF17C
:10575000040C930F04BF92000CF1020CD30F04BF92
:1057600052000CF1010C11464FF00002A0F11F0095
:10577000A0EB0C00704711F0004F08BF704731F0EC
:1057800000413FF4D5AF0B0C06BF09044FF0100CDD
:105790004FF0000C0B0E04BF09020CF1080C0B0FAC
:1057A00004BF09010CF1040C8B0F04BF89000CF13C
:1057B000020CCB0F04BF49000CF1010CCCF120030B
:1057C000A0EB0C0022FA03F302FA0CF241EA030107
:1057D00000F10100704720F07F4C80EA030023F0C5
:1057E0007F47ACEB070303F57C5300F0004003F167
:1057F000FF032DE980494FEA154B09B44FEA1443E2
:1058000025EA0B4E24EA03480FF2042606EB132781
:1058100049083E785FEA320203FB0667C7F50007D6
:1058200007FB06F64FEA54374FEAD64606F1020662
:1058300007FB066CCCF1005C4FEA1C472CEA074CD6
:1058400007FB06F40CFB06F504EB15464FEA96162B
:1058500034BF00204FF000404FEAD13706FB07FC71
:105860004FEA1C4C0CFB0BF7D21B03FB0CF761EB54
:1058700007010CFB0EF7B0EB074072EB17420CFB75
:1058800008F734BFA2EB0742B2EB074261EB1741C6
:105890004FEA0C444FEA910706FB07FC4FEA1C4C09
:1058A0000CFB0BF7B0EBC74072EB573203FB0CF766
:1058B00034BFA2EBC742B2EBC74261EB57310CFBDE
:1058C0000EF7B0EBC70072EB57720CFB08F734BF52
:1058D000A2EBC702B2EBC70261EB5771039F4FEA1D
:1058E000816141EA921104EBCC044FEAD1374FEACF
:1058F000826206FB07FC42EA90124FEA80604FEAA0
:105900001C4C0CFB0BF7D21B03FB0CF761EB0701E4
:105910000CFB0EF7B0EB074072EB17420CFB08F7DD
:1059200034BFA2EB0742B2EB074261EB17414FEAEB
:105930008C554FEA910704EB9C2406FB07FC4FEAC9
:105940001C4C0CFB0BF7B0EBC74072EB573203FB60
:105950000CF734BFA2EBC742B2EBC74261EB573141
:105960000CFB0EF7B0EBC70072EB57720CFB08F79D
:1059700034BFA2EBC702B2EBC70261EB577115EB64
:105980004C254FEA816141EA92114FEA82624FEA67
:10599000D13742EA901206FB07FC44F100044FEABB
:1059A00080604FEA1C4C0CFB0BF7D21B03FB0CF77F
:1059B00061EB07010CFB0EF7B0EB074072EB1742EF
:1059C0000CFB08F734BFA2EB0742B2EB074261EBD6
:1059D000174115EB1C154FEA813141EA92414FEA1C
:1059E000823242EA90424FEA80304FEA0C7644F12C
:1059F000000448EA03434EEA0B484FF0000EB2EBB6
:105A0000080C71EB030724BF624639464EEB0E0EBD
:105A10004FF0000B0018524149414BEB0B0BB2EB1E
:105A2000080C71EB03077BF1000B24BF624639467B
:105A30004EEB0E0E4FF0000B0018524149414BEB5C
:105A40000B0BB2EB080C71EB03077BF1000B24BFCF
:105A5000624639464EEB0E0E51EA020718BF46F079
:105A6000010616EB0E7655F1000254F1000103D544
:105A7000BDE88901BDE80088BDE88901BDE80048AE
:105A8000B619524141EB0101A3F101037047808037
:105A90007F7E7D7C7B7A7978777676757473727188
:105AA00071706F6E6E6D6C6C6B6A6A696868676640
:105AB00066656464636362616160605F5F5E5E5DD2
:105AC0005D5C5C5B5B5A5A59595858575756565546
:105AD00055555454535352525251515050504F4FA8
:105AE0004F4E4E4D4D4D4C4C4C4B4B4B4A4A4A49F8
:105AF000494948484847474747464646454545443B
:105B00004444444343434342424242414141002BC7
:105B10009C4630D477002BD01CB54FEA370703B42E
:105B20004FF010004FF01001BAF1000F06D0BCF199
:105B3000000FDCBF40F0080040F008014FF000000B
:105B40000FBCBDE810400BF1010BBBF1010F08BF0A
:105B50005FEA170722BF12F1010211F101014FF0B4
:105B6000004143F1000300F0004043EA00007047A9
:105B7000F9D35708D0E746EA064613F1400F4FEA3B
:105B800016461FDD13F1200FDFBF16430A46002122
:105B900020335B42BED0C3F1200746EA064602FA34
:105BA00007F74FEA164646EA0706C3F1200722FA2E
:105BB00003F201FA07F721FA03F14FF0000342EA7A
:105BC0000702A7E746EA020646EA06464FEA1646F5
:105BD00046EA0106BCBF46EA0646360C4FF0000313
:105BE0004FF000024FF0000194E72DE9804C9A46F7
:105BF000934670B491E8380007C831EA400C48BFBA
:105C000034EA430C03D5FFF7E6FDFFF780FFF0BC55
:105C1000BDE8008C2DE9804C9A46934670B491E81B
:105C2000380007C810F0804F08BF13F0804F03D131
:105C300000F005F8FFF76BFFF0BCBDE8008C20F02A
:105C40007F4780EA030023F07F4C07EB0C03A3F5AA
:105C50007C5300F00040A3F1FE0392F0000F00F02F
:105C6000B38095F0000F00F077802DE901494FEAED
:105C700011404FEA144621EA004800FB06FC24EAE2
:105C8000064708FB06F607FB08F800FB07F718EBCA
:105C900006484CEB164C4FEA124B18EB07484FEAFC
:105CA00015464CEB174022EA0B4E0BFB06FC25EA8F
:105CB00006470EFB06F607FB0EFE0BFB07F71EEB77
:105CC000064E4CEB164C4FF000061EEB074E4CEB0D
:105CD000174B18EB0B0840F1000018EB0E0B58EBBC
:105CE000000840F100008F1A4FF000013CBFC9438B
:105CF000661B14BFB5EB040C00213CBFC943F61B67
:105D00004FEA17444EEA8E0E27EA04454FEA1C4735
:105D100004FB07622CEA074C05FB07F70CFB05F6B2
:105D200004FB0CFC16EB074642EB174216EB0C4645
:105D300042EB1C421BEB060658EB0202414146EACD
:105D40009E0601D5BDE80189B619524141EB01011A
:105D5000A3F10103BDE801894FEA14454FEA114759
:105D600024EA054621EA074C05FB07F406FB07F782
:105D70000CFB06F105FB0CFC11EB074144EB17444F
:105D80004FEA124711EB0C4144EB1C4422EA074C4A
:105D900005FB07F206FB07F70CFB06F605FB0CFC00
:105DA00016EB074642EB174216EB0C4642EB1C453E
:105DB0006A1854F1000148BF7047B619524141EBCF
:105DC0000101A3F10103704795F0000F37D04FEAAE
:105DD00011424FEA144721EA024624EA074C02FB2B
:105DE00007F106FB07F70CFB06F402FB0CFC14EBB7
:105DF000074441EB17414FEA154714EB0C4441EBC4
:105E00001C4125EA074C02FB07F506FB07F70CFBD4
:105E100006F602FB0CFC16EB074645EB174516EBA6
:105E20000C4645EB1C42121951F1000148BF704766
:105E3000B619524141EB0101A3F1010370474FEA4A
:105E400014454FEA114724EA054621EA074C05FBB1
:105E500007F106FB07F70CFB06F24FF0000605FB07
:105E60000CFC12EB074241EB174112EB0C4251EBD9
:105E70001C4148BF7047921841EB0101A3F1010397
:105E80007047000070B5044600688168C943C907BF
:105E900017D1816821F00101816000F0D9FA05462F
:105EA0000AE000BF00F0D4FA401B022804D92068A1
:105EB0008068C043C00706D020688068C043C00720
:105EC000F0D0002070BDA06A40F01000A062E06A2F
:105ED00040F00100E062012070BDFEE704A003F085
:105EE000CDFF00BF04F022F9642004F06FFAF9E757
:105EF000434C49205461736B2069732072756E693D
:105F00006E6E67200A00000070470000F8B500249C
:105F1000009490F824202546012A12D0012280F80E
:105F200024204A681F23072A0DD20668776B521E69
:105F300002EB820293409F430B6893401F437763B9
:105F400019E00220F8BD06680D2A0AD2376BD21F6D
:105F500002EB820293409F430B6893401F433763D9
:105F600009E0F76A0D3A02EB820293409F430B6807
:105F700093401F43F7620A68072306680A2A0AD378
:105F8000F7680A3A02EB420293409F438B689340C2
:105F90001F43F76008E0376902EB420293409F43DA
:105FA0008B6893401F4337610A68102A01D0112A79
:105FB00020D1124B02689A4217D193681B0219D460
:105FC000936843F4000393600968102912D10C49C7
:105FD0000C4A0968B1FBF2F101EB8101490000E0D4
:105FE000491E00910029FBD104E0816A41F02001A3
:105FF0008162012480F824502046F8BD002401402D
:106000003800002040420F002DE9F0414FF000071A
:1060100004003D467ED0A06A002628B9E66284F8D6
:106020002460204600F07EF82046FFF72BFFA16A8F
:10603000C90600D420B1A06A40F01000A06269E057
:10604000A16A21F4885141F00201A1626268E1690C
:10605000237B0A4347EA43010A43A1684FF4807750
:10606000B94209D0012907D05FF0000194F814C0AB
:10607000BCF1010F02D00AE03946F7E7F3B1A36A99
:1060800043F02003A362E36A43F00103E362236861
:10609000D3F804C02CF4694C4CEA010CC3F804C0DA
:1060A00021688B68DFF870C003EA0C0313438B6030
:1060B000A168B9420BD0012909D00CE0DFF85CC01F
:1060C000A3690CEB43330B4343F40061DFE7218A00
:1060D0000D05A5F580152168CB6A23F470032B43C9
:1060E000CB62216889680E4B1940914208D1E66263
:1060F000A16A21F0020141F00101A162BDE8F08135
:10610000A06A20F0020040F01000A062E06A40F0B7
:106110000100E0620120F1E7FDF7E1FF00E0FFFF91
:10612000FE0E1FFF00B585B0002100910191029184
:10613000039100680E49884218D10E48816941F4E4
:1061400000718161816901F400710491816941F0FC
:10615000040181618069694600F004000490022016
:10616000009003200190044800F07CF805B000BDC9
:1061700000240140001002400008014010B590F8D2
:1061800021100022022905D00421816380F82020FB
:10619000012010BD01680B6823F00E030B6001683D
:1061A0000B6823F001030B6090F84030C46B0121B1
:1061B00001FA03F3636080F8211080F82020104674
:1061C00010BD000010B590F821100024022903D062
:1061D0000421816301243DE001680A6822F00E0277
:1061E0000A6001680A6822F001020A601A4A01681E
:1061F000914201D1012121E0174A1432914201D18B
:1062000010211BE0144A2832914201D1891515E072
:10621000114A3C32914201D189140FE00E4A5032AA
:10622000914202D14FF4803108E00B4A643291422E
:1062300002D14FF4801101E04FF08071064A083A14
:106240005160012180F82110002180F82010416B5D
:1062500001B18847204610BD0800024090F8210097
:10626000704700002DE9F84FDFF8B8910024A9F13C
:10627000040B23460F2709F1040AABF1040EC9E011
:106280000125A5402A40AA427DD1674ED1F804C01D
:10629000ACEB0608B44532D014DCBCF1030F3AD0A5
:1062A00009DCBCF1000F2AD0BCF1010F1CD0BCF1FD
:1062B000020F31D11DE0BCF1110F17D0BCF1120F4C
:1062C0002AD119E0B8F5881F19D006DCB8F5803F4F
:1062D00015D0B8F5801F1FD111E0B8F5001F0ED002
:1062E000B8F5041F18D10AE0CB6815E0CB681B1D78
:1062F00012E0CB6808330FE0CB680C330CE08B68FE
:106300002BB1012B4FF0080303D0456104E00423B7
:1063100002E0056100E00023FF2A01D8064601E003
:1063200000F104064FEA840501D9A5F12005D6F84D
:10633000008007FA05FC28EA0C0803FA05F548EA8C
:106340000508C6F800804D68ED0062D5374DAE698E
:1063500046F00106AE61AD6924F0030605F00105C3
:106360000095334D06EB050CDCF80850A607360FF8
:1063700007FA06F825EA0805DFF8B880404503D19A
:106380004FF0000817E044E0DFF8AC80404502D150
:106390004FF001080FE0DFF8A480404502D14FF034
:1063A000020808E0DFF89880404502D14FF003086A
:1063B00001E04FF0040808FA06F848EA0508CCF8AE
:1063C00008804D68D9F80060ED024D4601D51643AE
:1063D00000E096432E604D68DAF80060AD02554645
:1063E00001D5164300E096432E604D68DBF800604F
:1063F000AD035D4601D5164300E096432E604D681F
:10640000DEF80060ED03754601D5164300E09643C3
:106410002E60641C0D682A46E5407FF431AFBDE86C
:10642000F88F000008040140000011100010024025
:106430000000014000080140000C01400010014034
:10644000001401400AB1016170470904FBE7000034
:1064500001488068704700002C000020704770479A
:106460002DE9F047026800215368C66A90F83E4063
:1064700090F83D50102C12D0402C10D0046C002C01
:106480007DD05469E443A6077AD4DE43B60577D4B9
:10649000036C03B19169BDE8F04702F0CBB997698D
:1064A00051694FF42A0CC9435FEAC1784FF02A4979
:1064B00004D066452AD04E4528D010E0DE43B6050C
:1064C0000DD4C16A614501D1012103E0C16A49458A
:1064D00001D10821C162BDE8F04702F011B90E07F1
:1064E00016D4DE43B60513D4416CC9B21161416BB9
:1064F00009B1896A29B9816B002907D0896A002905
:1065000004D00068416841F400614160BDE8F08753
:106510008E0706D4DE43B60503D4BDE8F04702F08B
:1065200043B8FE43526876074FEA02521DD4002A50
:10653000ECDB0A0608D4DA43520505D4490705D531
:10654000BDE8F04701F0D4BF4907DFD4D94389053E
:10655000DCD4212D05D0402CD8D1BDE8F04702F085
:1065600015B9BDE8F04701F081BF002ACEDB4A062D
:106570000BD4DA43520508D4490708D501E00DE0F1
:106580000EE0BDE8F04701F039BE4907BED4D9435B
:106590008905BBD4BDE8F04701F0C7BD916970E73C
:1065A000E10606D4D943890503D4BDE8F04702F0DB
:1065B00065B92821212D27D0292D25D0650655D450
:1065C000DD436D0552D4640752D590F83D30448DBB
:1065D000002C9BD01269446A2270426A521C4262AB
:1065E000428D521E4285428D002A8FD12A2B8DD199
:1065F0000268536823F4806353602222026380F8A8
:106600003D1000F005FB81E7250623D4DD436D0531
:1066100020D4640720D590F83D30448D002CF2D072
:10662000446A24781461426A521C4262428D521EAE
:106630004285428D002AE6D1292BE4D102685368B5
:1066400023F4806353602122026380F83D1000F040
:10665000E0FA5BE76107D6D4D9438905D3D4418DED
:106660000029D0D0416A097811610AE06107CAD4D3
:10667000D9438905C7D4418D0029C4D01169426A24
:106680001170416A491C4162418D491E41853DE7B7
:106690007047000070B5040025D094F83D00002537
:1066A00020B984F83C50204600F07CFA242084F87D
:1066B0003D002068016821F0010101602068016847
:1066C00041F4004101602068016821F4004101604B
:1066D00000F0EEFC4D4A6168914201D84C4900E05F
:1066E0004C49884201D2012070BD4B492368B0FB60
:1066F000F1F15E6826F03F060E435E6063689342E8
:1067000006D94FF4967359434FF47A73B1FBF3F102
:106710002368491C1E6A26F03F06314319626168EE
:10672000914210D84900401EB0FBF1F2521CC2F356
:106730000B02042A01D2042022E0B0FBF1F0401C3D
:10674000C0F30B001CE0A268F2B301EBC10303EB42
:106750000116431EB3FBF6F35B1C43F480431B0599
:1067600049D092B301EBC10202EB0111401EB0FB14
:10677000F1F0401CC0F30B0040F4804040F40040B6
:106780002168CA694CF6FF739A431043C861D4E983
:10679000071001432068026822F0C0021143016023
:1067A000D4E9030101432068826848F2FF339A4329
:1067B00011438160D4E9050108432168CA6822F0C9
:1067C000FF021043C86001E00EE016E02068016897
:1067D00041F0010101602564202084F83D0025631B
:1067E00084F83E50002070BD01EB4106431EB3FB10
:1067F000F6F35B1CB3E70120C2E701EB4101401E49
:10680000B0FBF1F0401CC0F30B00B7E7A08601001D
:1068100080841E0000093D0040420F007047704711
:10682000704700002DE9F84F0025DDF828909846C4
:1068300017468A4604460095FFF70AFE064694F876
:106840003D0020287AD1192301228649204600964E
:1068500002F0EEF80028F5D194F83C0001286DD044
:10686000012084F83C0020680168C90703D1016851
:1068700041F0010101602068016821F400610160BC
:10688000222084F83D00102084F83E0025646762D1
:10689000A4F82A80608D20857348E06233464A461A
:1068A0005146204601F01EFD00287CD1208DDFF8E6
:1068B000BC81202768B1012814D002282068016813
:1068C0001ED041F4806101602068416980690090B8
:1068D000BBE02068416981690091016841F4007161
:1068E0000160B2E02068016821F48061016072B645
:1068F0002068416981690091016841F400710AE0F2
:1069000041F40061016072B62068416981690091BB
:10691000016821F48061016062B696E0032865D8C1
:1069200001280CD002284B464FF000024146204679
:1069300000960BD002F07CF8A8BB0CE090E0324649
:106940004946204602F01AF968BB71E002F070F87F
:1069500048BB72B633E02068016821F480610160B1
:1069600072B620680069616A0870606A401C6062E3
:10697000208D401E2085608D401E60853C4846F27B
:10698000A8110068B0FBF1F0C0EBC00000EB800084
:106990000090401E009007D020684069C043400727
:1069A0000DD50098F5E727E044F8305F6773A573CD
:1069B000206940F02000206162B625731CE0206849
:1069C000016841F40071016020680069616A087023
:1069D000606A401C6062218D491E2185618D491EBF
:1069E000618562B621680969017025E03246494631
:1069F000204602F0C3F810B10120BDE8F88F2068EE
:106A00000069616A0870606A401C6062208D401EE7
:106A100081B22185608D401E608520684269D24325
:106A2000520712D4032903D1016821F48061016067
:106A300020680069616A0870606A401C6062208D8D
:106A4000401E2085608D401E6085208D00287FF4CB
:106A500065AF84F83D7084F83E5084F83C50CCE734
:106A60000220CAE7020010000000FFFF040001003E
:106A7000380000202DE9F84F1F4690468A4604460C
:106A8000DDF82890FFF7E4FC054694F83D00202847
:106A90007FD11923012240492046009501F0C8FF0B
:106AA000002876D194F83C00012872D0012084F8A7
:106AB0003C0020680168C90703D1016841F0010169
:106AC00001602068016821F400610160212084F8E0
:106AD0003D00102084F83E0000262664C4F824807F
:106AE0006785608D20852D48E0622B464A465146D9
:106AF000204601F06DFC90B92068416980690090E2
:106B000036E02A464946204602F070F850B1206C23
:106B1000042804D12068016841F40071016001205B
:106B2000BDE8F88F606A216800780861606A401CDF
:106B30006062618D491E6185218D491E89B2218562
:106B400022685369DB435B070BD451B100781061B5
:106B5000606A401C6062608D401E6085208D401E12
:106B600020852A464946204601F036FF0028CED12E
:106B7000208D0028C5D154F83D0B016841F4007107
:106B80000160202004F81E09E67766770020C7E739
:106B9000FFE70220C4E70000020010000000FFFF32
:106BA0007047704710B586B00021009101910291A5
:106BB000039100681349884222D1134CA06940F028
:106BC0000800A061A069694600F008000490C02098
:106BD000009012200190032003900C48FFF742FB25
:106BE000E06940F40010E061E069002200F4001068
:106BF000049005211F2000F0A5F81F2000F094F854
:106C000006B010BD0054004000100240000C0140CE
:106C1000704770470248816802781144816070476C
:106C20002C000020074810B5016841F010010160F8
:106C3000032000F0A7F80F2000F006F800F050F84D
:106C4000002010BD0020024030B505461F4887B027
:106C5000C16941F00401C161C06906A900F00400E6
:106C6000009001A800F004FA0498B0B100F020FAF6
:106C700040001749174AB0FBF1F11748491E02605E
:106C8000416040F2E7320021C0E903218160816167
:106C900000F0B3FD040003D015E000F009FAE8E7C6
:106CA0000D4800F0D9FD04000DD11E2000F03CF885
:106CB000102D07D2002229461E2000F043F8074875
:106CC000056000E0012407B0204630BD00100240FE
:106CD00040420F00000800409004002030000020D7
:106CE0000F4808B5816941F001018161816901F0B6
:106CF00001010091C16941F08051C161C069002268
:106D000000F0805000900F21901E00F01BF8054805
:106D1000416821F0E06141F00071416008BD000070
:106D20000010024000000140002809DB00F01F02B3
:106D3000012191404009800000F1E020C0F80011DD
:106D400070470000F0B40E4B1B680C46C3F30223DF
:106D5000C3F10705042D00D90425191D072901D207
:106D6000002300E0DB1E012606FA05F1491E214042
:106D700099409E40761E16403143F0BC02F085BC1F
:106D80000CED00E0064900F0070208684FF6FF032B
:106D9000184040EA0220034A104308607047000090
:106DA0000CED00E00000FA0501490120086270477F
:106DB00000000E4210B501460020234C012922D0CC
:106DC000022939D010291DD161682268D20119D554
:106DD0001E48C1F38342C903805C0AD561681B4A1F
:106DE000C1F34041921E515C194AB2FBF1F1484394
:106DF00001E0184948436168490203D44000032177
:106E0000B0FBF1F010BD226AC2F30121012903D1C8
:106E1000920701D5C80310BD022905D1626A920705
:106E200002D549F6404010BD0329FCD121688903F1
:106E3000F9D54FF2244010BD00F04AF96168C1F362
:106E40008131491C4900DBE70010024098B000087E
:106E500000127A0000093D002DE9F843054600784C
:106E6000354CC00754D0E0690026C00008D4E06962
:106E700040F08050E061E069012600F08050009011
:106E80002E480168C90512D40168804641F480711A
:106E90000160FFF7DDFA074605E000BFFFF7D8FA0B
:106EA000C01B642823D8D8F80000C005F6D5206A96
:106EB00010F4407021D0A98801F4407181421CD0A7
:106EC000206A1F49012220F440700A6000220A60F3
:106ED0002062C00711D0FFF7BBFA074641F288389D
:106EE00008E000BFFFF7B4FAC11B414502D90320F7
:106EF000BDE8F883206A8007F4D5206A696820F429
:106F00004070084320621EB1E06920F08050E061CB
:106F10002878800705D56068A96820F440400843B8
:106F200060602878C00605D56068E96820F48000B4
:106F3000084360600020DBE7001002400070004062
:106F4000400442422DE9F0470F46050061D0434E10
:106F5000306800F00700B84209D2306820F007001E
:106F600038433060306800F00700B84251D12868DB
:106F70003B4C810712D5400703D5606840F4E060C0
:106F800060602878000703D5606840F46050606056
:106F90006068A96820F0F000084360602878C007A6
:106FA00028D06868012810D02168022810D08907ED
:106FB00000292EDA616821F0030101436160FFF7C7
:106FC00047FA804641F288390DE021688903EFE7EE
:106FD0008901EDE7FFF73CFAA0EB0801494502D92A
:106FE0000320BDE8F0876068696800F00C00B0EB32
:106FF000810FEFD1306800F00700B8420BD930683C
:1070000020F0070038433060306800F00700B842D5
:1070100001D00120E5E72878400705D56068E968D8
:1070200020F4E060084360602878000706D56068B7
:10703000296920F4605040EAC100606000F058F80F
:107040006168084AC1F30311515CC84006490860F1
:1070500006480068FFF7F8FD0020C2E70020024064
:1070600000100240A8B000083800002030000020C6
:107070000F2202600C4A536803F003034360536815
:1070800003F0F0038360536803F4E063C360526865
:107090004FF4E06303EAD20202610448006800F0A2
:1070A0000700086070470000001002400020024006
:1070B0000448054900684968044AC1F30221515C4B
:1070C000C84070473800002000100240B8B00008E7
:1070D0000448054900684968044AC1F3C221515C6B
:1070E000C84070473800002000100240B8B00008C7
:1070F0000E4A51680E4801F00C03042B11D0082BE6
:107100000FD10C48C1F38343C903C05C0AD5516851
:10711000084AC1F34041921E515C054A5043B0FBFE
:10712000F1F07047044948437047000000100240E6
:1071300000127A0086B0000800093D002DE9F84FE2
:10714000040070D02078C04DC00749D06868C0F3F3
:107150008100012807D06868C0F38100022809D1A6
:107160006868C00306D52868800339D560680028A0
:10717000E7D035E06068B0F5803F0BD010B1B0F5D6
:10718000A02F11D0286820F480302860286820F4CF
:10719000802002E0286840F480302860606890B168
:1071A000FFF756F906460AE0286840F48020286078
:1071B000F0E700BFFFF74CF9801B642873D82868FC
:1071C0008003F7D50CE0FFF743F9064605E000BF62
:1071D000FFF73EF9801B6428F0D828688003F7D4B5
:1071E00020789A4E80074FF001094FF0000839D5FA
:1071F000686810F00C0F07D06868C0F3810002289F
:1072000009D16868C00306D42868800714D52069AE
:10721000012808D110E02069B0B1C6F80090FFF74E
:1072200017F9074605E00AE1FFF712F9C01B02282B
:10723000C4D828688007F7D52868616920F0F8006D
:1072400040EAC10028600DE0C6F80080FFF700F9B1
:10725000074604E0FFF7FCF8C01B022823D8286883
:107260008007F7D4207800072CD57948A169D9B1D7
:10727000C0F80090FFF7ECF8074604E0FFF7E8F8E5
:10728000C01B02280FD8686A8007F7D571484FF4F1
:10729000FA510068B0FBF1F0009000BF0098411E69
:1072A0000091FAD20EE080E0C0F80080FFF7D0F83D
:1072B000074604E0FFF7CCF8C01B022875D8686ABF
:1072C0008007F7D42078400760D5E8690027C00020
:1072D00008D4E86940F08050E861E869012700F0CF
:1072E000805000905C480168C90513D4016883464A
:1072F00041F480710160FFF7ABF8824606E000BF01
:10730000FFF7A6F8A0EB0A0064284ED8DBF80000CF
:10731000C005F5D5E06801280AD008B1052813D0CA
:10732000286A20F001002862286A20F0040002E0A8
:10733000286A40F001002862E06841F2883B98B179
:10734000FFF786F882460BE0286A40F004002862C6
:10735000EEE700BFFFF77CF8A0EB0A0159455AD8C9
:10736000286A8007F6D50CE0FFF772F8824605E040
:10737000FFF76EF8A0EB0A0159454CD8286A800740
:10738000F6D41FB1E86920F08050E861E06988B365
:107390006968C1F38101022944D00228C6F86080DF
:1073A00004D0FFF755F8044638E034E0FFF750F812
:1073B000074604E0FFF74CF8C01B02282BD82868CA
:1073C0008001F7D4206AB0F5803F05D16868A168D4
:1073D00020F4003008436860D4E908010843696874
:1073E00021F4741108436860C6F86090FFF730F824
:1073F000044606E025E000BFFFF72AF8001B02283C
:1074000009D828688001F7D51BE000BFFFF720F8F6
:10741000001B022802D90320BDE8F88F28688001EC
:10742000F4D40EE00128F7D06868226A00F48031B5
:10743000914204D1616A00F47010884201D00120A9
:10744000EAE70020E8E700000010024000004242A6
:10745000800442423800002000700040F8B505006A
:107460004FF0000016460C46009006D02CB10022CA
:107470006946284600F019F808B10120F8BD287BBC
:107480002070E87BE070697B6170A97BA17056B1C8
:1074900001F0F7FCE070607801F0F3FC6070A07818
:1074A00001F0EFFCA0700020F8BD2DE9F0479146F7
:1074B0000C465FEA00084AD084B3D8F80000406860
:1074C000400744D4404601F07BFD4FF4616205461D
:1074D000B0FBF2F1B0FBF2F302FB13503C23B0FB24
:1074E000F3F0B5FBF2F6607002FB1650B0FBF3F25E
:1074F00003FB1200A070182931D31820B1FBF0F75C
:10750000B1FBF0F200FB12102070404601F051FD7B
:10751000411C04D0A84202D9461B02E017E04FF0FC
:10752000FF36A7EB071000EB4000C0EB001005EBA7
:10753000C0152946404601F092FD40B9701C01D0AB
:10754000711900E03146404601F075FD10B101208F
:10755000BDE8F0873946404601F09EFC00E021700E
:10756000B9F1000F0BD0207801F08BFC207060780F
:1075700001F087FC6070A07801F083FCA07000200F
:10758000E6E7000070B5040003D0607C002610B16F
:1075900005E0012070BD2674204600F03DF8022071
:1075A0006074204600F00AF9042550BB204601F023
:1075B000CAFC30BB2068416821F007014160A06827
:1075C00020B11448016821F0010101601148001F39
:1075D0000168A26821F46071114301606068411C78
:1075E00004D10120FFF7E6FB58B1401E2268C0F32A
:1075F00003419160216880B2C860204601F0BEFC62
:1076000008B16574C5E7E67301206073A073607408
:10761000002070BD306C004008B500680849884201
:107620000DD1FFF7C1FB0748C16941F00061C1619D
:10763000C069054900F0006000900120086008BDA5
:1076400000280040001002403C0442422DE9F04175
:107650000D4604003BD0C5B3207C01283AD04FF042
:10766000010884F8108002206074E87872B301F099
:10767000FFFBE073687801F0FBFB6073A87801F012
:10768000F7FBA073C2B2617BE07B01F0A9FC207321
:107690002870204601F094FC4FF46161B0FBF1F1D9
:1076A000002518292DD91822B1FBF2F1A1EB011107
:1076B00001EB4101C1EB011100EBC116314620463F
:1076C00001F0CDFC0427C8B90BE000E004E0012084
:1076D000BDE8F0810220FBE7E07368786073A8786A
:1076E000CFE7204601F065FC411C0AD0B04208D229
:1076F00006490144204601F09EFC10B167742574D0
:10770000E5E784F8118025740020E1E7805101004D
:107710002DE9F0410D46040024D01DB3207C012842
:1077200023D04FF0010884F810800220607428787C
:10773000EAB101F09DFB4FF4616100FB01F668784E
:1077400001F096FBC0EB001006EB8006A87801F074
:107750008FFB35182946204601F081FC00260427BE
:1077600010BB0FE00120BDE8F0810220FBE74FF4E1
:10777000616148436978C1EB011100EB8100A97890
:107780004518E7E72068416821F00501416020467F
:1077900001F00FFC411C0AD0A84208D2064901445E
:1077A000204601F048FC10B167742674DAE784F8CB
:1077B000118026740020D6E78051010070B50400C6
:1077C0000AD02068416821F008014160FEF740FEC0
:1077D00005464FF47A7608E0012070BDFEF738FECA
:1077E000401BB04201D9032070BD206840680007EB
:1077F000F4D5002070BD7047704710B5040003D069
:1078000094F83D0010B107E0012010BD002084F87D
:107810003C00204600F01EF8022084F83D00211DA7
:10782000206801F097FD012084F8460084F83E00AE
:1078300084F83F0084F8400084F8410084F8420056
:1078400084F8430084F8440084F8450084F83D003F
:10785000002010BD7047000090F83D10012901D0B4
:1078600001207047022180F83D100168CA6842F08B
:107870000102CA6000680B49884208D0B0F1804F0D
:1078800005D00949884202D00849884204D181685C
:1078900001F00701062903D0016841F001010160F0
:1078A00000207047002C0140000400400008004008
:1078B000704770B50446006801694FF00005C94380
:1078C000890715D4C168C943890711D4E91E01612C
:1078D00001202077206880698007204602D0FFF7CA
:1078E000E7FF04E000F098F8204600F096F82577CE
:1078F00020680169C943490717D4C168C9434907CA
:1079000013D46FF0040101610220207720688069A0
:1079100010F4407F204602D0FFF7CAFF04E000F0D9
:107920007BF8204600F079F8257720680169C94383
:10793000090716D4C168C943090712D46FF00801BA
:107940000161042020772068C0698007204602D0AA
:10795000FFF7AEFF04E000F05FF8204600F05DF8AE
:10796000257720680169C943C90617D4C168C9438E
:10797000C90613D46FF01001016108202077206838
:10798000C06910F4407F204602D0FFF791FF04E069
:1079900000F042F8204600F040F8257720680169A1
:1079A000C943C90708D1C168C943C90704D1891EA1
:1079B0000161204600F032F820680169C9430906D8
:1079C00009D4C168C943090605D46FF0800101617B
:1079D0002046FFF710FF20680169C943490609D412
:1079E000C168C943490605D46FF0400101612046D2
:1079F00000F01EF820680169C94389060BD4C168EC
:107A0000C943890607D46FF0200101612046BDE813
:107A10007040FFF7F1BE70BD7047704700680349C2
:107A2000884201D1FFF7F6B8704700000008004017
:107A30007047704770470000F8B501680446086851
:107A4000CA684B6910F00F0F4FF0000559D003F0D2
:107A5000010602F49077374365D0C10705D0D10500
:107A600003D5616C41F001016164410705D5D90777
:107A700003D0616C41F002016164810705D5D9072B
:107A800003D0616C41F004016164010707D502F085
:107A90002001314303D0616C41F008016164616CE5
:107AA00000293AD0800604D5900602D5204601F080
:107AB000B6FC20684069616CC0F38010090700D4EF
:107AC00060B3204601F084FC20684069400621D55F
:107AD0002068143050E8001F21F0400140E80012F7
:107AE000002AF5D1E06BA8B16D494163E06BFEF768
:107AF00069FB002811D0E06B416B01B0BDE8F0409C
:107B0000084783060FD593060DD52046BDE8F840FB
:107B100001F085BC2046FFF78DFFF8BD2046FFF73A
:107B200089FF6564F8BD266B2023012E7CD1C60633
:107B30007AD5D60678D508684868009048694FF02D
:107B40000206400640D5E16B086840680004000C5E
:107B5000E8D0A28D8242E5D9E085886920282DD021
:107B600020680C3050E8001F21F4807140E80012BA
:107B7000002AF5D12068143050E8001F21F00101DF
:107B800040E80012002AF5D12068143050E8001FA8
:107B900021F0400140E80012002AF5D184F842307B
:107BA000256320680C3050E8001F21F0100140E8E8
:107BB0000012002AF5D1E06BFEF7E0FA6663A08DB3
:107BC000E18D401A81B22AE0A08DE18D401A81B288
:107BD000E08D0028A6D00029A4D022680C3252E8FB
:107BE000000F20F4907042E80007002FF5D12068C4
:107BF000143050E8002F22F0010240E80027002F47
:107C0000F5D184F84230256320680C3050E8002F0D
:107C100022F0100240E80023002BF5D166632046D5
:107C2000FFF707FFF8BDFFE705062BD5150629D599
:107C300094F841002128F5D1A068B0F5805F01D10A
:107C40002069B0B1206A411C216221680078486037
:107C5000E08C401E0004000CE084E3D12068C16881
:107C600021F08001C1602068C16841F04001C1601D
:107C7000D8E7206A0088C0F308004860206A801CAA
:107C80002062E5E74006CDD55006CBD5CA68204630
:107C900022F04002CA6084F8413000F014F9C1E7D4
:107CA000C193000870B5040004D094F84100002589
:107CB00010B106E0012070BD84F84050204600F06D
:107CC00023F8242084F841002068C16821F4005181
:107CD000C160204601F004FC2068016921F4904154
:107CE00001612068416921F02A0141612068C16871
:107CF00041F40051C1606564202084F8410084F89B
:107D000042006563002070BD70B586B00024009409
:107D10000194029403942E4E03682E4902200322FC
:107D20002D4DB34226D18B6943F480438B618B691F
:107D300003F4804304938B6943F004038B618969E6
:107D4000039201F0040104910102CDE9001069469B
:107D50002846FEF787FA2815CDE90004694628462B
:107D60000294FEF77FFA002205212520FEF7EAFFA4
:107D7000252028E0194EB34227D1CB6943F40033C4
:107D8000CB61CB6903F4003304938B6943F00403A4
:107D90008B618969039201F0040104910421CDE90A
:107DA000001069462846FEF75DFA0820CDE9000478
:107DB000694628460294FEF755FA0022052126203E
:107DC000FEF7C0FF2620FEF7AFFF06B070BD000033
:107DD000003801400010024000080140004400400B
:107DE00090F84230202B01D00220704721B11AB107
:107DF0000023036301F0D0BB0120704710B509498F
:107E00000068096888420BD10748807B02F01AF8A5
:107E100005490122BDE810400E310248FFF7E0BFDE
:107E200010BD0000F4010020000000202DE9F843FF
:107E3000044690F841001F4616460D46202802D001
:107E40000220BDE8F8837DB176B100206064212076
:107E500084F84100FEF7FCFAA6848046E684A06818
:107E6000B0F5805F02D003E00120EAE7206910B19D
:107E70002E4600250EE000260CE08021204601F071
:107E8000A6FBA0B9AEB116F8010B21684860E08CE2
:107E9000401EE084E08C43464FF00002009700282B
:107EA000EBD14FF04001204601F091FB30B10320AF
:107EB000C7E735F8020BC0F30800E6E7202084F896
:107EC00041000020BDE77047FEE700000148FEF7D3
:107ED000C7BA00004401002038B5406A002190F87C
:107EE0003D202B4B46F2A8141B68B3FBF4F3C3EB05
:107EF000C30303EB830300933BB15B1E0093036852
:107F00001B689B0505D5009BF6E7036C43F0200337
:107F10000364436B03B19962836B03B19962036895
:107F20001C6824F480641C604185436B03B1596371
:107F3000836B03B1596303681C6824F001041C605F
:107F400090F83D402023602C0BD0282434EA020214
:107F50000FD080F83D3080F83E1000BFFEF798FB50
:107F600038BD80F83D3080F83E100164FEF776FAA7
:107F700038BD0268136843F0010313600268136898
:107F800043F480631360016380F83D40E6E700003E
:107F90003800002000684169C943090601D4002166
:107FA0000161704770B5044690F83D0094F83E10AA
:107FB000102901D0402906D1222804D121680A685D
:107FC00022F400620A60282131EA00024FF0000525
:107FD0004FF0200626D021684968090505D460289D
:107FE00003D084F83D6084F83E50256320684168E2
:107FF000090537D5416821F400614160606B90F854
:1080000021203C49012A11D04163606BFEF7DAF868
:1080100038B32068016821F00101016084F83D60F7
:10802000606B1CE0256384F83D10DFE7A06B4163C3
:10803000A06BFEF7C7F8A0B120684169C9434906A3
:1080400005D40069616A0870606A401C606220683B
:10805000016821F00101016084F83D60A06B416B73
:10806000884710E094F83D10602910D04169C94359
:10807000490605D40069616A0870606A401C606244
:108080002046FEF705FB206CC1071CD115E084F8E3
:108090003D6025644169C943490605D40069616AA8
:1080A0000870606A401C60622068016821F001016C
:1080B00001602046FEF7D2F9E5E7810703D44107C6
:1080C00001D4000704D52068416821F4E0614160D3
:1080D00094F83D00216C49070BD5282809D10648A2
:1080E000E062256384F83D6084F83E502046FEF748
:1080F00095FB70BDD97E00080000FFFF01684A694A
:10810000D24352050FD46FF480624A61002140F8D7
:10811000301F202242738173026942F0040202611F
:108120000173012070470020704710B5C26A438D6B
:108130000168042B06D0438D032B08D0438D022BFE
:108140001DD012E04A6822F480624A600CE04B685D
:1081500023F480634B60042A06D0022A04D001680D
:108160000A6822F480620A6001680969426A117033
:10817000416A491C4162418D491E418510BD012A59
:1081800030D0102A2ED0042A30D0022A2ED00A68ED
:1081900042F400720A6001680969426A1170416A1A
:1081A000491C4162428D521E4285026812690A7062
:1081B000416A491C4162418D491E418501684A68F6
:1081C00022F440724A60202180F83D1090F83E2051
:1081D0000021402A80F83E100CD012210163FEF7E6
:1081E0001EFB10BD0A6822F48062D3E70A6842F4DD
:1081F0008062CFE70163FEF7D3FC10BD38B590F87D
:108200003D1022290FD1418D03290DD9016809693B
:10821000426A1170416A491C4162418D491E418583
:10822000418D032906D038BDC26A022A02D0012935
:1082300006D029B10068416821F48061416038BDF1
:10824000274946F2A81300220968B1FBF3F101EBBC
:108250008101009101682023009C641E009422D0BB
:108260000C68A405F8D40C6824F480640C600168E0
:108270004C6824F4E0644C6001680969446A217028
:10828000416A491C4162418D491E418580F83D305B
:1082900090F83E1080F83E2040291DD01221016345
:1082A000FEF7BDFA38BD046C44F0200404644C6849
:1082B00024F4E0644C6001680969446A2170416AF1
:1082C000491C4162418D491E418580F83D3080F84E
:1082D0003E20FEF7DDF938BD0263FEF761FC38BDD4
:1082E000380000202DE9F84F0446C06A1E46934628
:1082F0000D4621680A6842F480620A60082807D0A7
:10830000012805D010F5803F02D0206B112804D140
:108310002068016841F4807101604FF001195B46EB
:10832000002249462046009600F082FB4FF4007878
:1083300040B120680068C00501D5C4F84080032022
:10834000BDE8F88F2069DFF884A0B0F5804F0FD02A
:108350000620216800EAD51747F0F000086133468F
:108360005A460AF10601204600F0AAFB58BB03E07A
:10837000E8B240F001001CE02168E8B20861334631
:108380005A465146204600F09BFBE0B920684169FF
:1083900081690091016841F4807101605B460022AF
:1083A00049462046009600F043FB0028C1D147F023
:1083B000F1002168086133465A465146204600F0D4
:1083C0007FFB0028BCD00120BAE7000002000100BA
:1083D000F8B50446C06A1E460D461746082807D061
:1083E000012805D010F5803F02D0206B122804D15F
:1083F0002068016841F480710160134600224FF04B
:1084000001112046009600F013FB40B1206800687F
:10841000C00502D54FF4007020640320F8BD206928
:10842000B0F5804F0ED00620216800EAD51040F04C
:10843000F000086133463A460B49204600F040FB05
:1084400078B902E005F0FE0000E0E8B221680861BA
:10845000054933463A46891F204600F031FB002883
:10846000DCD00120F8BD00000800010010B5C26A90
:1084700090F83D1021290BD1418D51B1416A02681C
:1084800009781161416A491C4162418D491E41854B
:1084900010BD20230021082A13D0202A11D012F564
:1084A000803F0ED00268546824F4E06454601122C6
:1084B000026380F83E1080F83D3000BFFEF7B0F94F
:1084C00010BD0268546824F4E064546002681468C3
:1084D00044F400741460016380F83D3090F83E204D
:1084E00080F83E10402AE9D1FEF75BFB10BD00008A
:1084F00010B590F83D1090F83E30C26A048DB4B1CA
:10850000212903D0402B11D122290FD1418DE1B374
:1085100090F83E10402942D0416A02680978116102
:10852000416A491C4162418D491E418510BD212986
:10853000E8D120230021082A13D0202A11D012F5D7
:10854000803F0ED00268546824F4E0645460112225
:10855000026380F83E1080F83D3000BFFEF760F9FE
:1085600010BD0268546824F4E06454600268146822
:1085700044F400741460016380F83D3090F83E20AC
:1085800080F83E10402AE9D100E002E0FEF709FB46
:1085900010BD0068416821F48061416010BDBDE8F4
:1085A000104000F0F3B8000078B590F83E50C26A71
:1085B000046B90F83D6000230168222E73D1066D94
:1085C0000EB9402D6FD0056D1DB90569B5F5404F49
:1085D0001BD0458D95B3468D484D012E20D0448D3E
:1085E000022C4DD00C6844F480640C6001684C6827
:1085F000240579D5AA4273D0012A71D0082A6FD0F8
:10860000102A6DD0202A6BD06EE04A698A690092E8
:108610000A6842F480720A60016D491C016578BDE8
:10862000AA4214D10A6822F480620A6001684A688A
:10863000120504D50A6822F4806217E0FFE74A6950
:108640008A6900920A6842F400720A6050E0082ABF
:1086500010D0202A0ED0122C0AD0042A03D0022ACD
:1086600001D0102AE6D10A6842F480620A603BE039
:10867000012ADFD00A6822F480620A600168DEE71E
:10868000042A11D0022A0FD0102A0DD00C6844F40D
:1086900000640C6001684C698C6900940C6824F4D7
:1086A00080640C6008E025E00C6844F480640C6091
:1086B00001684C698969009101684C68240517D5E7
:1086C000AA4207D0012A05D0082A03D0102A01D0D7
:1086D000202A0DD14A6842F480524A6008E0FFE740
:1086E0004A6842F480524A6001684A698969009187
:1086F000036578BD48698869009078BD0000FFFF78
:1087000090F83E10402910D00169B1F5804F19D082
:10871000016DA9B3016D012910D1416C5FF0F10227
:1087200001F4407142EAD11106E0016D0029416C6B
:1087300005D0C9B241F0010100680161704701F044
:10874000FE01F9E790F83D102129416C09D0C9B22A
:1087500041F0010102681161416B29B1896A49B98F
:1087600002E001F0FE01F5E7816B0029E6D0896A9D
:108770000029E3D00068416841F40061416070471E
:10878000FFE7416CF02201F44071CBE710B590F89F
:108790003D10026D4AB1026D012A14D0026D022A09
:1087A00016D0BDE81040FFF7F5BBC16C0129816C04
:1087B00002D0C1F3072108E00268C9B21161016D5E
:1087C000891C016510BD816CC9B20268116123E08A
:1087D00022291CD0428D0AB1212920D0428D002AA5
:1087E000F0D12129EED101684A6822F4E0624A60A2
:1087F00001680A6842F400720A60002101632022C5
:1088000080F83D2080F83E10FEF7CBF910BD0168DE
:108810000A6842F480720A60016D491CD1E7416A1E
:10882000026809781161416A491C4162418D491E03
:10883000418510BD38B50C4690F83D200021282513
:10884000954302680B4605D051699169009180F803
:108850003C3038BD556825F480655560E2435407C7
:1088600000D50121120601D5828900E0028B80F833
:108870003C3092B2FDF7F3FD38BD0000F8B590F83A
:108880003D6004460068416821F4E0614160206871
:10889000002541690091016841F0010101602068F3
:1088A000016821F48061016020684168090520D5D4
:1088B000474F222E48D02A2E46D0616B096849685E
:1088C0006185618D19B1216C41F004012164416819
:1088D00021F400614160606BFDF7C0FC012808D005
:1088E000606B4763606BFDF76DFC10B1606B416BB3
:1088F0008847608D08B320684169C943490708D497
:108900000069616A0870606A401C6062608D401E88
:10891000608520684169C943490608D40069616AD5
:108920000870606A401C6062608D401E6085608DCA
:1089300018B1206C40F004002064206C00B3204685
:10894000BDE8F840FFF72EBBA16B09684968618557
:10895000618D19B1216C41F004012164416821F459
:1089600000614160A06BFDF779FC0128C1D0A06BCC
:108970004763A06BFDF726FC0028BAD0A06BB6E7D2
:108980002A2E06D12563282084F83D002046FEF7D4
:108990003FF994F83D10202028290DD0216B222981
:1089A00001D0222E07D1256384F83D0084F83E5083
:1089B0002046FEF72DF9F8BD0649E162256384F8EB
:1089C0003D0084F83E502046FDF728FFF8BD00002A
:1089D000D97E00080000FFFF70B516460D4604461C
:1089E0001EE02046FFF78AFB08B1012070BD681C1D
:1089F00016D0FDF72DFD801BA84200D885B9206850
:108A00004069C04340070BD5002044F8300F2021B7
:108A10006173A073216941F0200121612073E4E7B3
:108A200020684069C0434007DBD4002070BD0000CF
:108A30002DE9F047984617460D460446C1F3074610
:108A4000DDF820902AE000BFB8F1FF3F26D0FDF707
:108A5000FFFCA0EB0901414502D8B8F1000F1DD180
:108A60002068012E16D0806925EA00000004000C61
:108A700012D00020B84211D1002044F8300F20213C
:108A80006173A073216941F02001216120730120ED
:108A9000BDE8F0874069E7E70120EBE72068012E99
:108AA0000AD0806925EA00000004000C06D00020EE
:108AB000B842C9D00020EBE74069F3E70120F7E7AF
:108AC0002DE9F047984616460D4604464FF000093A
:108AD0004FF0200AC1F3074723E020684069C043F4
:108AE000400515D42068016841F4007101602168D7
:108AF0006FF480604861C4F8309084F83DA084F839
:108B00003E90216C41F00401216484F83C9021E006
:108B1000701C06D0FDF79CFCA0EB0800B04203D807
:108B200016B1012F1FD021E02068012F15D08069D8
:108B300025EA00000004000C18D000BF44F8309F64
:108B400084F80DA084F80E90216941F02001216184
:108B500084F80C900120BDE8F087406925EA000008
:108B60000004000CEAD12068406901E020688069B7
:108B700025EA00000004000CAFD1ECE72DE9F0413C
:108B8000002590460E460446202728E04069C04351
:108B9000C0060CD454F8301B6FF01000486144F844
:108BA00010596777A577206A2062257714E0FDF7D2
:108BB0004FFCA0EB0800B04200D886B9206840699D
:108BC000C04340060BD544F8305F6773A573206936
:108BD00040F02000206125730120BDE8F08120686D
:108BE0004169C9434906D1D40020F6E770B516465D
:108BF0000D4604461EE02046FFF780FA08B101202A
:108C000070BD681C16D0FDF723FC801BA84200D85D
:108C100085B920684069C04300060BD5002044F8A0
:108C2000300F20216173A073216941F0200121617F
:108C30002073E4E720684069C0430006DBD40020CD
:108C400070BD00003EB500211148009101910F4A0E
:108C50000291026001248160047301754FF4602267
:108C60000461C2614160FDF7CFF908B172B6FEE759
:108C700007200094CDE9014069460548FDF746F913
:108C8000002801D072B6FEE73EBD0000002401407E
:108C9000140100202DE9F04385B000242F480094F2
:108CA000019402940394816941F01001816181690A
:108CB00001F010010491816941F020018161816915
:108CC00001F020010491816941F004018161816911
:108CD00001F004010491816941F00801816180691A
:108CE0001F4F00F00800049000224FF40051384656
:108CF000FDF7A8FB01224FF440413846FDF7A2FBE7
:108D0000DFF86080012211464046FDF79BFBDFF84B
:108D10005890002230214846FDF794FB4FF4604004
:108D200001250226CDE90005CDE90246694638460F
:108D3000FDF798FA03960095CDE90154694640463F
:108D4000FDF790FA3020CDE90005CDE902466946ED
:108D50004846FDF787FA05B0BDE8F08300100240F1
:108D60000010014000080140000C01401CB5002427
:108D70001B480194194900940160611E41604FF441
:108D800080718160FEF7FEFB08B172B6FEE7172026
:108D90008DF8040048208DF805008DF8064001226A
:108DA00001A90F48FEF7B4FC08B172B6FEE7062031
:108DB0008DF8000011208DF8010025208DF80200AB
:108DC00023208DF80300012269460548FEF73EFC8A
:108DD000002801D072B6FEE71CBD0000002800404C
:108DE000980100201CB50020019000901B481A49F2
:108DF00001604FF0FF3141604FF480718160FEF7F8
:108E0000C1FB08B172B6FEE7154C012201A9A0789A
:108E10008DF8040060788DF8050020788DF8060044
:108E20000E48FEF775FC08B172B6FEE7E0788DF8E3
:108E3000000020798DF80100A0798DF8020060799A
:108E40008DF80300012269460448FEF7FFFB002865
:108E500001D072B6FEE71CBD00280040980100203A
:108E600000000020FEE7FEE7002001F00BFBFBE71F
:108E7000010901EB810100F00F0000EB4100C0B2DD
:108E80007047002102E00A38C0B2491C0A28FAD211
:108E9000090740EA116070472DE9F04104460025BA
:108EA000C07B627BA37B42E0012A16D0032A14D048
:108EB000052A12D0072A10D0082A0ED00A2A0CD070
:108EC0000C2A0AD0042A10D0062A0ED0092A0CD067
:108ED0000B2A0AD0022A0DD028E01F2B0CD30C2A13
:108EE00005D101221346401C20E01E2B04D3012390
:108EF000521C1BE01C2B02D203F1010316E011D11E
:108F000083B29E0710D16426B3FBF6F706FB173633
:108F100036B94FF4C876B3FBF6F706FB17331BB927
:108F20001D2303E01D2B01D1032201236D1C8D4263
:108F3000BAD3D1B2E0736173DAB2A27300F050F821
:108F40002073BDE8F08170B50446FDF781FA05464F
:108F50004FF47A7606E0FDF77BFA401BB04201D968
:108F6000032070BD206840688006F4D52068416801
:108F700041F010014160002070BD000070B5044652
:108F80000068416821F010014160FDF761FA054673
:108F90004FF47A7607E000BFFDF75AFA401BB04263
:108FA00001D9032070BD206840688006F4D50020F8
:108FB00070BD0168086A496A89B241EA0040704799
:108FC000006881698AB2C1698BB2816989B28A42BB
:108FD00003D0C06961F31F40704743EA0240704705
:108FE000F0B56424C1EBC1030927A500072603EBF4
:108FF00001130329B3FBF7F100F5FA6011440144B2
:109000000AD2401EB0FBF4F201EB9001B0FBF5F088
:10901000891A0844001D08E0B0FBF4F201EB90014E
:10902000B0FBF5F0891A0844801CB0FBF6F106FB92
:109030001100C0B2F0BD70B50D4606460024FFF722
:1090400082FF48B93168280C08623168A8B24862CA
:109050003046FFF793FF00B10124204670BD70B584
:109060000D4606460024FFF76EFF48B93168280C0C
:1090700088613168A8B2C8613046FFF77FFF00B150
:109080000124204670BD01F00DBF000031B582B053
:1090900000204FF47A740A4DCDE90040012302AA62
:1090A00080212868FDF7E6FC0094032301AA8021B3
:1090B0002868FDF7B7FBBDF8040040BA3EBD0000CC
:1090C0000C01002010B508B1E32000E0F320FFF709
:1090D000DDFF01F0EBFC6FF00F0201F07FFF064AAD
:1090E000064B01F0F7FC064A064B01F02FFCBDE8E9
:1090F000104001F0F9BB0000D7A3703D0AF76540AE
:10910000CDCCCCCCCC6C47C0014908607047000086
:109110000C0100203EB50B4DE7204FF47A748DF81A
:1091200008000094012302AA80212868FDF7A2FC10
:109130000094012301AA80212868FDF773FB9DF8A4
:1091400004003EBD0C0100201CB50446FFF7E2FF01
:1091500009A100F07E000968204301918DF8050007
:109160004FF47A7000900548022301AA802100681C
:10917000FDF780FC1CBD0000E60000000C01002093
:109180001CB5354E354D364C4FF400474FF48048F2
:1091900041F28839E079012803D1FFF723FE00204E
:1091A000E0710120FFF78EFFFFF76DFF2C49607320
:1091B00000220F312B48FEF778F929490022183197
:1091C0002848FEF74BF926491831A1F1090000F0B3
:1091D000BFFFE061617B207A81420CD201221146FF
:1091E0003046FDF72FF9012239462846FDF72AF9C6
:1091F000002241460FE0143081424FF001020CD8AA
:1092000001213046FDF71EF9012241462846FDF7AF
:1092100019F90022394628460BE041462846FDF759
:1092200011F9012239462846FDF70CF900220121E7
:109230003046FDF707F9322001F0C8F8217BE07ACB
:10924000CDE90001A37A627B607AE16900F02EFE2D
:10925000484601F0BBF89DE70008014000100140BE
:10926000000000209801002004A000F007FE00BFCD
:1092700000F05CFF642001F0A9F8F9E7434C4920B5
:109280005461736B2069732072756E696E6E67200E
:109290000A00000010B5502080F31188BFF34F8FF3
:1092A000BFF36F8F01F02EFA18B104494FF08050D0
:1092B0000860002080F3118810BD000004ED00E07C
:1092C00030B593B028216846FBF7ADF914210AA800
:1092D000FBF7A9F900240F940920012110940090B4
:1092E000119412944FF4803004910691CDE9010459
:1092F0000225CDE907504FF4E01009906846FDF7CC
:109300001DFF08B172B6FEE70F20CDE90A054FF444
:109310008060CDE90C4002210AA80E94FDF712FEF0
:1093200008B172B6FEE703200F904FF40070109062
:10933000800111900FA8FDF78FFD002801D072B6B3
:10934000FEE713B030BD70470148FEF7B2BA000027
:1093500090040020F0B50268164B174C174D4FF0E3
:109360008047984205D0B84203D0A04201D0A8421D
:1093700003D122F070064A683243984205D0B842C1
:1093800003D0A04201D0A84203D122F44074CA689D
:1093900022434C6922F08002224302608A68C26242
:1093A0000A688262984201D1096901630121416121
:1093B000F0BD0000002C0140000400400008004007
:1093C00010B5406A0021C185C184FEF733FB10BD92
:1093D00001680C3151E8002F22F4907241E800231B
:1093E000002BF5D10168143151E8002F22F0010261
:1093F00041E80023002BF5D1016B012909D1016857
:109400000C3151E8002F22F0100241E80023002B1C
:10941000F5D1202180F8421000210163704708B582
:1094200090F84210222901D0022008BD82684FF432
:1094300080539A4201D1016921B1816A9A421BD0BD
:109440004AB10AE00268816A5268C2F308020A80DF
:10945000816A891C08E0026972B10268526802F0F0
:109460007F020A70816A491C8162C18D491E09040C
:10947000090CC18503D01BE002685268F1E701685E
:10948000CA6822F02002CA600168CA6822F48072A9
:10949000CA6001684A6922F001024A61202180F80D
:1094A000421000214163026B012A03D0FEF7A6FCA3
:1094B000002008BD016301680C3151E8002F22F043
:1094C000100241E80023002BF5D101680A68D2069A
:1094D00002D50A6849680091818DFEF7AAFAE7E78C
:1094E00070B5044600680169E26821F440511143F7
:1094F00001612169A0680843616908432168CA685D
:1095000041F20C639A430243CA6020684169A26930
:1095100021F44071114341611E492068884202D103
:10952000FDF7D6FD01E0FDF7C3FD00EBC00101EB47
:109530000012606864218000B2FBF0F3B3FBF1F32A
:109540006FF018067343B2FBF0F5B2FBF0F605EBD3
:109550008305322303EB0515B5FBF1F5B6FBF1F6F8
:1095600005F0F00505EB0615B2FBF0F6B2FBF0F0E6
:10957000B0FBF1F06FF01802504306EB800003EBF4
:109580000010B0FBF1F0216800F00F002844886063
:1095900070BD00000038014081628285C2850021D3
:1095A0004164222180F84210016921B10168CA6832
:1095B00042F48072CA6001684A6942F001024A615D
:1095C0000068C16841F02001C160002070472DE9AA
:1095D000F041984617460E460446069D27E0681C53
:1095E00025D02DB1FCF734FFA0EB0800A8421ED90E
:1095F00020680C3050E8001F21F4D07140E80012C0
:10960000002AF5D12068143050E8001F21F0010134
:1096100040E80012002AF5D1202084F8410084F8A7
:109620004200002084F840000320BDE8F08120685B
:10963000006836EA000004D00020B842CFD00020F5
:10964000F3E70120F9E700000148FEF7F5B9000053
:10965000AC0100200148FEF7EFB90000F401002042
:10966000FEE7490050EAC12018BF04204A0D18BF88
:1096700040F0010040F2FF72B2EB515F08BF40F0D2
:109680000200012808BF052070470907090E0028BD
:1096900004DB00F1E02080F80014704700F00F00B8
:1096A00000F1E02080F8141D704730380A2801D2FC
:1096B000012070470020704730B5017895B07B29B4
:1096C00018D000240EA1FAF757FF6D4608E000BF3E
:1096D00045F82400641CE4B209A10020FAF74CFF0D
:1096E0000028F5D1009800F021F828B10268214641
:1096F0006846904715B030BD02A000F0BFFBF9E707
:10970000200000005B4572726F725D3A2046696E00
:1097100064206E6F7420666F756E6420796F757249
:1097200020636F6D6D616E640A00000070B50546C0
:10973000064C05E029462068FAF79CFF20B1083462
:1097400060680028F6D170BD606870BDE0B00008A8
:1097500010B5042901D207A008E001D90EA005E048
:10976000C068FAF7FBFE1548017815A0BDE8104067
:1097700000F084BB5B4572726F725D3A204E6F746D
:1097800020656E6F75676820617267756D656E74B0
:10979000203D2025640A00005B4572726F725D3ABD
:1097A00020546F6F206D75636820617267756D65F9
:1097B0006E74203D2025640A000000000D0000208A
:1097C0005B537563636573735D3A2054656D7065B3
:1097D000726174757265203D202564004A498AB023
:1097E00048480860FDF71EFAFFF76AFDFFF752FAD6
:1097F000474846494FF4E13600240160C0E901645E
:109800000C25C460C0E904458461C461FEF74AFACE
:1098100008B172B6FEE73E483E4948300160C0E9F3
:109820000164C460C0E904458461C461FEF73AFA8A
:1098300008B172B6FEE7FFF705FAFFF797FA34486A
:109840003549683801603549C0E901144FF4804159
:10985000C0E9034144618461C4610462FCF71AFFFA
:1098600008B172B6FEE72A4801222D494830FEF7BA
:10987000B7FA2748483000F0FBFA00224FF40051B5
:109880002848FCF7DFFD284D012210212846FCF76F
:10989000D9FD002220212846FCF7D4FD1C48683859
:1098A000FFF732FC0020FFF74FFC1C221F4902A8E3
:1098B000FAF787FE002102A800F079F81849002382
:1098C0000E398022486101F12000CDE9004018A145
:1098D0001E4800F0BFFE124800231630CDE90040BC
:1098E00080221BA1214800F0B5FE0D4800231A304C
:1098F000CDE90040AA151EA1264800F0ABFE00F0FD
:1099000051F8FEE70040000808ED00E00038014093
:10991000AC0100200044004000540040A08601003B
:109920000E00002000100140000C014068B000084B
:109930005461736B5F53656E73696E675F54656DD9
:109940007065726174757265000000008191000895
:109950005461736B5F436F6D6D616E645F4C696ED4
:10996000655F496E7465726661636500DD5E00085F
:109970005461736B5F5570646174655F4669726DA5
:10998000776172655F4F7665725F5468655F4169A4
:1099900072000000698E000801460020842900D072
:1099A000C81C704710B500F037FD002010BD7FB512
:1099B0000D4604464169B0F9080081B1A16971B151
:1099C000FFF7EAFFD4E905128DE80700D4E900109B
:1099D0002B46226900F06BFE039004B070BDFFF7C8
:1099E000DBFF03A9CDE90001208A2B4682B2D4E92E
:1099F000001000F02FFE012801D00020EDE70398B1
:109A0000EBE700002DE9F041184C0F46054666696A
:109A10002068001D00F016FC38B9206890F82C1062
:109A200001208840A1698143A161681C07D137B139
:109A30002168BDE8F0410E48091D00F047BC2068D0
:109A40003544B5424560216805D2A068BDE8F041C3
:109A5000091D00F023BC6068091D00F01FFC206B8D
:109A6000854200D22563BDE8F08100003C00002063
:109A7000B40500202DE9F041054600F033FC2E4CE2
:109A80002069401C206120682C4F10B1E06940B370
:109A90002DE025602069012829D1002606EB8600EB
:109AA00007EB800000F0ECFB761C072EF6D3234872
:109AB0008C3000F0E5FB2148A03000F0E1FB1F48AE
:109AC000B43000F0DDFB1D48C83000F0D9FB1B4866
:109AD000DC3000F0D5FB19488C3060601430A06099
